{"abi":[{"type":"constructor","inputs":[{"name":"defaultAdmin","type":"address","internalType":"address"},{"name":"_token","type":"address","internalType":"address"},{"name":"_ticket","type":"address","internalType":"address"},{"name":"_minAmount","type":"uint256","internalType":"uint256"}],"stateMutability":"nonpayable"},{"type":"function","name":"ADMIN_ROLE","inputs":[],"outputs":[{"name":"","type":"bytes32","internalType":"bytes32"}],"stateMutability":"view"},{"type":"function","name":"DEFAULT_ADMIN_ROLE","inputs":[],"outputs":[{"name":"","type":"bytes32","internalType":"bytes32"}],"stateMutability":"view"},{"type":"function","name":"battleIds","inputs":[],"outputs":[{"name":"","type":"uint256","internalType":"uint256"}],"stateMutability":"view"},{"type":"function","name":"claimMarketMakerIncentives","inputs":[{"name":"battleIds_","type":"uint256[]","internalType":"uint256[]"}],"outputs":[],"stateMutability":"nonpayable"},{"type":"function","name":"claimWin","inputs":[{"name":"who","type":"address","internalType":"address"},{"name":"battleIds_","type":"uint256[]","internalType":"uint256[]"}],"outputs":[],"stateMutability":"nonpayable"},{"type":"function","name":"createBattle","inputs":[{"name":"creator","type":"address","internalType":"address"},{"name":"manifest","type":"tuple","internalType":"struct IBattles.BattleManifest","components":[{"name":"battleType","type":"uint8","internalType":"enum IBattles.BattleType"},{"name":"option0Id","type":"string","internalType":"string"},{"name":"option1Id","type":"string","internalType":"string"}]},{"name":"option","type":"uint8","internalType":"enum IBattles.BattleOption"},{"name":"amount","type":"uint256","internalType":"uint256"},{"name":"secondsBeforeStart","type":"uint64","internalType":"uint64"}],"outputs":[],"stateMutability":"nonpayable"},{"type":"function","name":"duration","inputs":[],"outputs":[{"name":"","type":"uint64","internalType":"uint64"}],"stateMutability":"view"},{"type":"function","name":"futureLimit","inputs":[],"outputs":[{"name":"","type":"uint64","internalType":"uint64"}],"stateMutability":"view"},{"type":"function","name":"generateHash","inputs":[{"name":"manifest","type":"tuple","internalType":"struct IBattles.BattleManifest","components":[{"name":"battleType","type":"uint8","internalType":"enum IBattles.BattleType"},{"name":"option0Id","type":"string","internalType":"string"},{"name":"option1Id","type":"string","internalType":"string"}]},{"name":"startTimestamp","type":"uint64","internalType":"uint64"}],"outputs":[{"name":"hash","type":"bytes32","internalType":"bytes32"},{"name":"isActive","type":"bool","internalType":"bool"}],"stateMutability":"view"},{"type":"function","name":"getBattle","inputs":[{"name":"battleId","type":"uint256","internalType":"uint256"}],"outputs":[{"name":"","type":"tuple","internalType":"struct IBattles.BattleData","components":[{"name":"creator","type":"address","internalType":"address"},{"name":"hasClaimedIncentive","type":"bool","internalType":"bool"},{"name":"manifest","type":"tuple","internalType":"struct IBattles.BattleManifest","components":[{"name":"battleType","type":"uint8","internalType":"enum IBattles.BattleType"},{"name":"option0Id","type":"string","internalType":"string"},{"name":"option1Id","type":"string","internalType":"string"}]},{"name":"option0Count","type":"uint256","internalType":"uint256"},{"name":"option1Count","type":"uint256","internalType":"uint256"},{"name":"option0PrizePool","type":"uint256","internalType":"uint256"},{"name":"option1PrizePool","type":"uint256","internalType":"uint256"},{"name":"startTimestamp","type":"uint64","internalType":"uint64"},{"name":"closeTimestamp","type":"uint64","internalType":"uint64"},{"name":"aPIRequestId","type":"uint256","internalType":"uint256"},{"name":"winOption","type":"uint8","internalType":"enum IBattles.BattleOption"}]}],"stateMutability":"view"},{"type":"function","name":"getMarketMakerIncentive","inputs":[{"name":"battleId","type":"uint256","internalType":"uint256"}],"outputs":[{"name":"","type":"uint256","internalType":"uint256"}],"stateMutability":"view"},{"type":"function","name":"getPayout","inputs":[{"name":"who","type":"address","internalType":"address"},{"name":"battleId","type":"uint256","internalType":"uint256"}],"outputs":[{"name":"","type":"uint256","internalType":"uint256"}],"stateMutability":"view"},{"type":"function","name":"getPrizePoolAndOdds","inputs":[{"name":"battleId","type":"uint256","internalType":"uint256"}],"outputs":[{"name":"prizePool","type":"uint256","internalType":"uint256"},{"name":"option0Odd","type":"uint256","internalType":"uint256"},{"name":"option1Odd","type":"uint256","internalType":"uint256"}],"stateMutability":"view"},{"type":"function","name":"getRoleAdmin","inputs":[{"name":"role","type":"bytes32","internalType":"bytes32"}],"outputs":[{"name":"","type":"bytes32","internalType":"bytes32"}],"stateMutability":"view"},{"type":"function","name":"getRoleMember","inputs":[{"name":"role","type":"bytes32","internalType":"bytes32"},{"name":"index","type":"uint256","internalType":"uint256"}],"outputs":[{"name":"","type":"address","internalType":"address"}],"stateMutability":"view"},{"type":"function","name":"getRoleMemberCount","inputs":[{"name":"role","type":"bytes32","internalType":"bytes32"}],"outputs":[{"name":"","type":"uint256","internalType":"uint256"}],"stateMutability":"view"},{"type":"function","name":"getUserPrediction","inputs":[{"name":"user","type":"address","internalType":"address"},{"name":"battleId","type":"uint256","internalType":"uint256"}],"outputs":[{"name":"","type":"tuple","internalType":"struct IBattles.UserPrediction","components":[{"name":"option","type":"uint8","internalType":"enum IBattles.BattleOption"},{"name":"amount","type":"uint256","internalType":"uint256"},{"name":"isClosed","type":"bool","internalType":"bool"}]}],"stateMutability":"view"},{"type":"function","name":"grantRole","inputs":[{"name":"role","type":"bytes32","internalType":"bytes32"},{"name":"account","type":"address","internalType":"address"}],"outputs":[],"stateMutability":"nonpayable"},{"type":"function","name":"hasRole","inputs":[{"name":"role","type":"bytes32","internalType":"bytes32"},{"name":"account","type":"address","internalType":"address"}],"outputs":[{"name":"","type":"bool","internalType":"bool"}],"stateMutability":"view"},{"type":"function","name":"makePrediction","inputs":[{"name":"who","type":"address","internalType":"address"},{"name":"battleId","type":"uint256","internalType":"uint256"},{"name":"option","type":"uint8","internalType":"enum IBattles.BattleOption"},{"name":"amount","type":"uint256","internalType":"uint256"}],"outputs":[],"stateMutability":"nonpayable"},{"type":"function","name":"makePredictionWithTickets","inputs":[{"name":"who","type":"address","internalType":"address"},{"name":"battleId","type":"uint256","internalType":"uint256"},{"name":"option","type":"uint8","internalType":"enum IBattles.BattleOption"},{"name":"ids","type":"uint256[]","internalType":"uint256[]"}],"outputs":[],"stateMutability":"nonpayable"},{"type":"function","name":"marketMakerIncentive","inputs":[],"outputs":[{"name":"","type":"uint8","internalType":"uint8"}],"stateMutability":"view"},{"type":"function","name":"minAmount","inputs":[],"outputs":[{"name":"","type":"uint256","internalType":"uint256"}],"stateMutability":"view"},{"type":"function","name":"renounceRole","inputs":[{"name":"role","type":"bytes32","internalType":"bytes32"},{"name":"callerConfirmation","type":"address","internalType":"address"}],"outputs":[],"stateMutability":"nonpayable"},{"type":"function","name":"resolveBattle","inputs":[{"name":"battleId","type":"uint256","internalType":"uint256"}],"outputs":[],"stateMutability":"nonpayable"},{"type":"function","name":"revokeRole","inputs":[{"name":"role","type":"bytes32","internalType":"bytes32"},{"name":"account","type":"address","internalType":"address"}],"outputs":[],"stateMutability":"nonpayable"},{"type":"function","name":"setDuration","inputs":[{"name":"_duration","type":"uint64","internalType":"uint64"}],"outputs":[],"stateMutability":"nonpayable"},{"type":"function","name":"setFutureLimit","inputs":[{"name":"_futurelimit","type":"uint64","internalType":"uint64"}],"outputs":[],"stateMutability":"nonpayable"},{"type":"function","name":"setMarketMakerIncentive","inputs":[{"name":"_marketMakerIncentive","type":"uint8","internalType":"uint8"}],"outputs":[],"stateMutability":"nonpayable"},{"type":"function","name":"setMinAmount","inputs":[{"name":"_minAmount","type":"uint256","internalType":"uint256"}],"outputs":[],"stateMutability":"nonpayable"},{"type":"function","name":"supportsInterface","inputs":[{"name":"interfaceId","type":"bytes4","internalType":"bytes4"}],"outputs":[{"name":"","type":"bool","internalType":"bool"}],"stateMutability":"view"},{"type":"function","name":"ticket","inputs":[],"outputs":[{"name":"","type":"address","internalType":"contract IBattlesTicket"}],"stateMutability":"view"},{"type":"function","name":"token","inputs":[],"outputs":[{"name":"","type":"address","internalType":"contract IERC20"}],"stateMutability":"view"},{"type":"function","name":"updateAmount","inputs":[{"name":"who","type":"address","internalType":"address"},{"name":"battleId","type":"uint256","internalType":"uint256"},{"name":"amount","type":"uint256","internalType":"uint256"},{"name":"topUp","type":"bool","internalType":"bool"}],"outputs":[],"stateMutability":"nonpayable"},{"type":"function","name":"updateOption","inputs":[{"name":"who","type":"address","internalType":"address"},{"name":"battleId","type":"uint256","internalType":"uint256"}],"outputs":[],"stateMutability":"nonpayable"},{"type":"event","name":"ClaimMarketMakerIncentive","inputs":[{"name":"battleId","type":"uint256","indexed":true,"internalType":"uint256"},{"name":"incentive","type":"uint256","indexed":false,"internalType":"uint256"}],"anonymous":false},{"type":"event","name":"ClaimWin","inputs":[{"name":"who","type":"address","indexed":true,"internalType":"address"},{"name":"battleId","type":"uint256","indexed":true,"internalType":"uint256"},{"name":"payout","type":"uint256","indexed":false,"internalType":"uint256"}],"anonymous":false},{"type":"event","name":"CreateBattle","inputs":[{"name":"creator","type":"address","indexed":true,"internalType":"address"},{"name":"battleType","type":"uint8","indexed":true,"internalType":"enum IBattles.BattleType"},{"name":"battleId","type":"uint256","indexed":false,"internalType":"uint256"},{"name":"hash","type":"bytes32","indexed":true,"internalType":"bytes32"},{"name":"manifest","type":"tuple","indexed":false,"internalType":"struct IBattles.BattleManifest","components":[{"name":"battleType","type":"uint8","internalType":"enum IBattles.BattleType"},{"name":"option0Id","type":"string","internalType":"string"},{"name":"option1Id","type":"string","internalType":"string"}]}],"anonymous":false},{"type":"event","name":"MakePrediction","inputs":[{"name":"who","type":"address","indexed":true,"internalType":"address"},{"name":"battleId","type":"uint256","indexed":true,"internalType":"uint256"},{"name":"amount","type":"uint256","indexed":false,"internalType":"uint256"},{"name":"option","type":"uint8","indexed":true,"internalType":"enum IBattles.BattleOption"}],"anonymous":false},{"type":"event","name":"ResolveBattle","inputs":[{"name":"battleId","type":"uint256","indexed":true,"internalType":"uint256"},{"name":"winOption","type":"uint8","indexed":true,"internalType":"enum IBattles.BattleOption"},{"name":"aPIRequestId","type":"uint256","indexed":true,"internalType":"uint256"},{"name":"timestamp","type":"uint256","indexed":false,"internalType":"uint256"}],"anonymous":false},{"type":"event","name":"RoleAdminChanged","inputs":[{"name":"role","type":"bytes32","indexed":true,"internalType":"bytes32"},{"name":"previousAdminRole","type":"bytes32","indexed":true,"internalType":"bytes32"},{"name":"newAdminRole","type":"bytes32","indexed":true,"internalType":"bytes32"}],"anonymous":false},{"type":"event","name":"RoleGranted","inputs":[{"name":"role","type":"bytes32","indexed":true,"internalType":"bytes32"},{"name":"account","type":"address","indexed":true,"internalType":"address"},{"name":"sender","type":"address","indexed":true,"internalType":"address"}],"anonymous":false},{"type":"event","name":"RoleRevoked","inputs":[{"name":"role","type":"bytes32","indexed":true,"internalType":"bytes32"},{"name":"account","type":"address","indexed":true,"internalType":"address"},{"name":"sender","type":"address","indexed":true,"internalType":"address"}],"anonymous":false},{"type":"event","name":"SetDuration","inputs":[{"name":"duration","type":"uint64","indexed":false,"internalType":"uint64"}],"anonymous":false},{"type":"event","name":"SetFutureLimit","inputs":[{"name":"futureLimit","type":"uint64","indexed":false,"internalType":"uint64"}],"anonymous":false},{"type":"event","name":"SetMarketMakerIncentive","inputs":[{"name":"marketMakerIncentive","type":"uint8","indexed":false,"internalType":"uint8"}],"anonymous":false},{"type":"event","name":"SetMinAmount","inputs":[{"name":"minAmount","type":"uint256","indexed":false,"internalType":"uint256"}],"anonymous":false},{"type":"event","name":"UpdateAmount","inputs":[{"name":"who","type":"address","indexed":true,"internalType":"address"},{"name":"battleId","type":"uint256","indexed":true,"internalType":"uint256"},{"name":"amount","type":"uint256","indexed":false,"internalType":"uint256"},{"name":"topUp","type":"bool","indexed":true,"internalType":"bool"}],"anonymous":false},{"type":"event","name":"UpdateOption","inputs":[{"name":"who","type":"address","indexed":true,"internalType":"address"},{"name":"battleId","type":"uint256","indexed":true,"internalType":"uint256"},{"name":"oldOption","type":"uint8","indexed":false,"internalType":"enum IBattles.BattleOption"},{"name":"newOption","type":"uint8","indexed":false,"internalType":"enum IBattles.BattleOption"}],"anonymous":false},{"type":"error","name":"AccessControlBadConfirmation","inputs":[]},{"type":"error","name":"AccessControlUnauthorizedAccount","inputs":[{"name":"account","type":"address","internalType":"address"},{"name":"neededRole","type":"bytes32","internalType":"bytes32"}]},{"type":"error","name":"AddressEmptyCode","inputs":[{"name":"target","type":"address","internalType":"address"}]},{"type":"error","name":"AddressInsufficientBalance","inputs":[{"name":"account","type":"address","internalType":"address"}]},{"type":"error","name":"FailedInnerCall","inputs":[]},{"type":"error","name":"SafeERC20FailedOperation","inputs":[{"name":"token","type":"address","internalType":"address"}]}],"bytecode":{"object":"0x60c034620001d557601f6200382638819003918201601f191683019291906001600160401b03841183851017620001da578160809284926040968752833981010312620001d5576200005181620001f0565b6200005f60208301620001f0565b60606200006e858501620001f0565b930151600480546001600160881b031916706400000000001275000000000000093a801790556001600160a01b0391821660805292811660a052600392909255620000b98162000205565b620001b3575b620000ca8162000285565b62000180575b826000808052806020526001828220018181549155817fbd79b86ffe0ab8e8776151514217cd7cacd52c909f66475c3af44e129f0b00ff9181838180a4600080516020620038068339815191528083526001848420019183835493558380a4516134429081620003a482396080518181816101b30152818161076e01528181611057015281816118f7015281816119d701528181611e8801526121ae015260a051818181610bcb0152611cf30152f35b620001aa916000805160206200380683398151915260005260016020528360002091169062000316565b503880620000d0565b600080526001602052620001ce836000208383169062000316565b50620000bf565b600080fd5b634e487b7160e01b600052604160045260246000fd5b51906001600160a01b0382168203620001d557565b6001600160a01b031660008181527fad3228b676f7d3cd4284a5443f17f1962b36e491b30a40b2405849e597ba5fb5602052604081205490919060ff166200028157818052816020526040822081835260205260408220600160ff198254161790553391600080516020620037e68339815191528180a4600190565b5090565b6001600160a01b031660008181527f7d7ffb7a348e1c6a02869081a26547b49160dd3df72d1d75a570eb9b698292ec6020526040812054909190600080516020620038068339815191529060ff166200031157808352826020526040832082845260205260408320600160ff19825416179055600080516020620037e6833981519152339380a4600190565b505090565b919060018301600090828252806020526040822054156000146200039d57845494680100000000000000008610156200038957600186018082558610156200037557836040949596828552602085200155549382526020522055600190565b634e487b7160e01b83526032600452602483fd5b634e487b7160e01b83526041600452602483fd5b5092505056fe6080604052600436101561001257600080fd5b60003560e01c80630183cc381461227857806301ffc9a7146122085780630fb5a6b4146121e1578063112c63be14611fff578063248a9ca314611fd05780632f2ff15d14611f6857806330d36f4d14611e4057806336568abe14611df95780633e3e88f314611dcf5780634b852c0314611d675780634b937f1814611d49578063565eea1914611d225780636cc25db714611cdd5780636dd0ce7a14611af357806375b238fc14611ab85780637e207230146116dc57806385e03f6814610fb3578063897b063714610f675780638de3661614610ea55780638fbdaa6014610e7f5780639010d07c14610e3857806391d1485414610deb578063925cc3d314610d91578063985ba97014610b225780639b2cb5d814610b04578063a217fddf14610ae8578063a739657d14610a39578063b53c69bf14610a08578063c72d00dd14610739578063c7a74adf14610715578063ca15c873146106e9578063d547741f146106a8578063d93705a5146104b7578063eb1c16be146101e75763fc0c546a1461019d57600080fd5b346101e25760003660031901126101e2576040517f00000000000000000000000000000000000000000000000000000000000000006001600160a01b03168152602090f35b600080fd5b346101e25760403660031901126101e257610200612351565b602435908160005260209060068252604060002060405161022081612762565b81549260018060a01b03808516835260ff809560a01c161515868401526040519161024a8361277e565b600193868587015416906002948583101561049457610312928152610270868901612873565b8a82015261028060038901612873565b6040820152604082015260048701546060820152600a600597888101546080840152600681015460a0840152600781015460c08401526008810154926102fa60e08201916101408d6001600160401b03968796878a1687528761010086019a60401c168a5260098101546101208601520154169101612919565b51169080421680921092836104aa575b505050612cb7565b1694856000528381526040600020876000528152610361604060002086846040519261033d8461277e565b61034a8382541685612919565b878101548685015201541615156040820152612be8565b600381101561049457610375901515612d03565b8660005260068152604060002093866000528082526040600020886000528252604060002095604051906103a88261277e565b6103b58189541683612919565b848689015498858401998a520154161515604082015251946003861015610494577f8fdef3e5d8f09fac5a82cff7ff935706e9ad948b4e31f97bc826e4916342f65596604096860361046557600761043a91600484016000198154019055848401888154019055805161042d6006860191825461264f565b9055519201918254612d5b565b905586600052815283600020876000528152836000208260ff198254161790558351928352820152a3005b600661043a91848498979801600019815401905560048401878154019055805161042d6007860191825461264f565b634e487b7160e01b600052602160045260246000fd5b51161190508a808061030a565b346101e2576020806003193601126101e257600435906104d56123c9565b81600052600681526040600020604051906104ef82612762565b80546001600160a01b038116835260a01c60ff161515838301526040516105158161277e565b60ff600183015416600281101561049457815261053460028301612873565b8482015261054460038301612873565b604082015260408301526004810154606083015260058101546080830152600681015460a0830190815260078201549260c081019384526105ce60088401549460e08301936105c561014060ff600a6001600160401b03998a8c168a528a6101008a019c60401c168c5260098101546101208a015201541695019485612919565b51905190612d5b565b151580610699575b6105df90612925565b51600381101561049457610654575191516105fe9290821691166133b7565b9290918160005260068152836009604060002061061e86600a8301612bf5565b01556003831015610494577f5843e43ec048396840078c9a963d665e855d02f20e517bd343de6083a146701e90604051428152a4005b60405162461bcd60e51b815260048101859052601c60248201527f4572726f723a20426174746c6520636c6f73656420616c7265616479000000006044820152606490fd5b508351831642841610156105d6565b346101e25760403660031901126101e2576106e76004356106c761233b565b908060005260006020526106e2600160406000200154612443565b6124e7565b005b346101e25760203660031901126101e25760043560005260016020526020604060002054604051908152f35b346101e25760003660031901126101e257602060ff60045460801c16604051908152f35b346101e25760803660031901126101e257610752612351565b6024356044359160038310156101e257606435906107928230837f0000000000000000000000000000000000000000000000000000000000000000612c5f565b826000526020600681526040600020926040516107ae81612762565b84546001600160a01b03808216835260a09190911c60ff1615158483015260405190916107da8261277e565b60019660ff88820154169060028210156104945783600a926108a1955261080360028301612873565b8882015261081360038301612873565b604082015260408401526004810154606084015260058101546080840152600681015460a0840152600781015460c084015260088101549261088a60e082019161014060ff6001600160401b03968796878a1687528761010086019a60401c168a5260098101546101208601520154169101612919565b51169080421680921092836109fb57505050612cb7565b6108ac871515612aeb565b6108ba600354831015612b2d565b856000526006835260406000209316938460005260058352604060002086600052835280604060002001546109bd57604051936108f68561277e565b6109008886612919565b83850183815260408601956000875287600052600586526040600020896000528652604060002090516003811015610494577fdafe4f52c3103275958f5247f2245da359ecf060dd13f591bf6069dca1b9a1f69761097f9361096460029385612bf5565b518684015551151591019060ff801983541691151516179055565b8782036109a45760069160048201908154019055018181540190555b604051908152a4005b600791600582019081540190550181815401905561099b565b60405162461bcd60e51b8152600481018490526016602482015275155c19185d1948195b9d1c9a595cc81a5b9cdd19585960521b6044820152606490fd5b511611905089808061030a565b346101e25760203660031901126101e2576060610a26600435612dbf565b9060405192835260208301526040820152f35b346101e25760403660031901126101e257610a52612351565b600060408051610a618161277e565b828152826020820152015260018060a01b0316600052600560205260406000206024356000526020526060604060002060405190610a9e8261277e565b610aac60ff82541683612919565b60ff60026001830154926020850193845201541690604083019115158252610ad86040518094516123bc565b5160208301525115156040820152f35b346101e25760003660031901126101e257602060405160008152f35b346101e25760003660031901126101e2576020600354604051908152f35b346101e25760803660031901126101e257610b3b612351565b6024356044359160038310156101e2576001600160401b03906064358281116101e257610b6c90369060040161230b565b60408051636073696960e11b815260048101919091526044810182905291936001600160fb1b0382116101e257829160051b809560648401376001600160a01b03938416602483018190529460209384918491908101036064018160007f000000000000000000000000000000000000000000000000000000000000000089165af1918215610d8557600092610d56575b50856000526006835260406000209360ff60405191610c1b83612762565b8654908116835260a01c1615158482015260405191610c398361277e565b60019560ff878201541690600282101561049457848392610cf69652610c6160028301612873565b88820152610c7160038301612873565b604082015260408501526004810154606085015260058101546080850152600681015460a0850152600781015460c0850152610cdf60088201549461014060ff600a60e0840195878a1687528761010086019a60401c168a5260098101546101208601520154169101612919565b5116908042168092109283610d4957505050612cb7565b610d01861515612aeb565b610d0f600354821015612b2d565b84600052600682526040600020928460005260058352604060002086600052835280604060002001546109bd57604051936108f68561277e565b511611905088808061030a565b9091508281813d8311610d7e575b610d6e8183612799565b810103126101e257519087610bfd565b503d610d64565b6040513d6000823e3d90fd5b346101e2576003196040368201126101e2576004356001600160401b03918282116101e25760609082360301126101e25760243591821682036101e257604091610ddd9160040161317d565b825191825215156020820152f35b346101e25760403660031901126101e257610e0461233b565b600435600052600060205260406000209060018060a01b0316600052602052602060ff604060002054166040519015158152f35b346101e25760403660031901126101e25760043560005260016020526020610e666024356040600020612597565b905460405160039290921b1c6001600160a01b03168152f35b346101e25760203660031901126101e2576020610e9d600435612d9b565b604051908152f35b346101e25760203660031901126101e25760043560ff8116908181036101e257610ecd6123c9565b81151580610f5b575b15610f26576004805460ff60801b191660809290921b60ff60801b169190911790556040519081527f72b7c34ea56e4656cd85418e9fc334bdcd3b7763cba453719887a897cbfa466190602090a1005b60405162461bcd60e51b815260206004820152600d60248201526c125b9d985b1a59081a5b9c1d5d609a1b6044820152606490fd5b506103e8821115610ed6565b346101e25760203660031901126101e2577f31e8afaf594e92b0e3a71872c4b570994eaf53a4fb17977eb469c2b786cd70236020600435610fa66123c9565b80600355604051908152a1005b346101e25760031960a0368201126101e257610fcd612351565b906001600160401b03602435116101e257606090602435360301126101e257600360443510156101e2576084356001600160401b03811681036101e25761103a9061101b6044351515612aeb565b61102b6003546064351015612b2d565b6001600160401b034216612b78565b6110498160243560040161317d565b61168d5761107b60643530857f0000000000000000000000000000000000000000000000000000000000000000612c5f565b80600052600760205260406000206001600160401b0383166001600160401b0319825416179055600254916001830160025560016044351460001461167d5760643590600060016000925b6110db6001600160401b036004541682612b78565b92604051956110e987612762565b6001600160a01b038a168752600060208801526040516111088161277e565b60026024356004013510156101e2576024356004013581526024803501356001600160401b0381116101e25761114690600436916024350101612bca565b602082015260446024350135966001600160401b0388116101e25760ff6001600160401b03989681936111828b99600436916024350101612bca565b604082015260408c01521660608a015216608088015260a087015260c08601521660e0840152166101008201526000610120820152600061014082015282600052600660205260406000209060018060a01b0381511682549060ff60a01b6020840151151560a01b16916affffffffffffffffffffff60a81b161717825560408101518051600281101561049457600184019060ff8019835416911617905560208101518051906001600160401b0382116115a2576112446002860154612839565b601f8111611636575b50602090601f83116001146115c3576040939291600091836115b8575b50508160011b916000199060031b1c19161760028501555b01518051906001600160401b0382116115a2576112a26003850154612839565b601f811161155b575b50602090601f83116001146114e757610140939291600091836114dc575b50508160011b916000199060031b1c19161760038401555b606081015160048401556080810151600584015560a0810151600684015560c08101516007840155600883016001600160401b0360e08301511681549067ffffffffffffffff60401b61010085015160401b16916fffffffffffffffffffffffffffffffff19161717905561012081015160098401550151600381101561049457600a61136e9201612bf5565b611417604051838152604060208201526113916040820160243560040135612367565b7fe1b96a70e6a6f4fc44ea0fd297921cf5db8688a89c5ad3a87a985278c775bff76113d86113c86024803501602435600401612c0d565b60608086015260a0850191612c3e565b91806113ee604460243501602435600401612c0d565b828603603f1901608084015260046024350135966001600160a01b038b16969092909190612c3e565b0390a46040516114268161277e565b61143260443582612919565b60208101906064358252604081016000815260018060a01b0385166000526005602052604060002084600052602052604060002091519060038210156104945761149e9361148260029385612bf5565b51600184015551151591019060ff801983541691151516179055565b6040516064358152604435926001600160a01b0316907fdafe4f52c3103275958f5247f2245da359ecf060dd13f591bf6069dca1b9a1f690602090a4005b0151905088806112c9565b906003850160005260206000209160005b601f198516811061154357509183916001936101409695601f1981161061152a575b505050811b0160038401556112e1565b015160001960f88460031b161c1916905588808061151a565b919260206001819286850151815501940192016114f8565b600385016000526020600020601f840160051c81016020851061159b575b601f830160051c8201811061158f5750506112ab565b60008155600101611579565b5080611579565b634e487b7160e01b600052604160045260246000fd5b01519050898061126a565b906002860160005260206000209160005b601f198516811061161e575091839160019360409695601f19811610611605575b505050811b016002850155611282565b015160001960f88460031b161c191690558980806115f5565b919260206001819286850151815501940192016115d4565b600286016000526020600020601f840160051c810160208510611676575b601f830160051c8201811061166a57505061124d565b60008155600101611654565b5080611654565b60009060643560006001926110c6565b60405162461bcd60e51b815260206004820152602160248201527f4572726f723a204d616e696665737420697320616c72656164792061637469766044820152606560f81b6064820152608490fd5b346101e25760803660031901126101e2576116f5612351565b6064351515606435036101e2576024356000526006602052604060002060405161171e81612762565b81546001600160a01b038116825260a01c60ff1615156020820152604051916117468361277e565b60ff6001820154169060028210156104945783600a9261180c955261176d60028301612873565b602082015261177e60038301612873565b604082015260408401526004810154606084015260058101546080840152600681015460a0840152600781015460c08401526008810154926117f560e082019161014060ff6001600160401b03968796878a1687528761010086019a60401c168a5260098101546101208601520154169101612919565b5116908042168092109283611aab57505050612cb7565b60018060a01b03811690816000526005602052604060002060243560005260205261186c604060002060ff6002604051926118468461277e565b6118538382541685612919565b6001810154602085015201541615156040820152612be8565b600381101561049457611880901515612d03565b60243560008181526006602090815260408083208684526005835281842094845293909152908190209051816118b58261277e565b6118c360ff82541683612919565b60018101549060ff600260208501928484520154161515604084015260643560001461198757505061191b604435809530907f0000000000000000000000000000000000000000000000000000000000000000612c5f565b51916003831015610494576001928303611979576006018381540190555b019081540190555b60405160443581526064351515917f35342123d95fc9efed2a20c5c3dd54825fe4b7057575e02156951fc46447794a602060243593a4005b600701838154019055611939565b6044959391949535809510611a6657518414611a15575b6001016119ac84825461264f565b905551926003841015610494576119fb93600103611a00576006016119d283825461264f565b90555b7f0000000000000000000000000000000000000000000000000000000000000000612971565b611941565b600701611a0e83825461264f565b90556119d5565b60028101805460ff191660011790558151906003821015610494576001918203611a515760048601611a478154612d4e565b90555b905061199e565b60058601611a5f8154612d4e565b9055611a4a565b60405162461bcd60e51b815260206004820152601b60248201527f4572726f723a20496e73756666696369656e742062616c616e636500000000006044820152606490fd5b511611905083808061030a565b346101e25760003660031901126101e25760206040517fa49807205ce4d355092ef5a8a18f56e8913cf4a201fbe287825b095693c217758152f35b346101e25760203660031901126101e257611b0c6127ba565b506004356000526006602052604060002060405190611b2a82612762565b80546001600160a01b038116835260a01c60ff1615156020830152604051611b518161277e565b60ff600183015416600281101561049457611bf49282600a9260ff9452611b7a60028301612873565b6020820152611b8b60038301612873565b604082015260408601526004810154606086015260058101546080860152600681015460a0860152600781015460c08601526001600160401b03600882015481811660e088015260401c1661010086015260098101546101208601520154166101408301612919565b60405180916020825260018060a01b038151166020830152602081015115156040830152611cd9610140611c7060408401516101606060870152611c3d61018087018251612367565b6040611c5a602083015160606101a08a01526101e0890190612397565b91015186820361017f19016101c0880152612397565b9260608101516080860152608081015160a086015260a081015160c086015260c081015160e08601526001600160401b0360e0820151166101008601526001600160401b03610100820151166101208601526101208101518286015201516101608401906123bc565b0390f35b346101e25760003660031901126101e2576040517f00000000000000000000000000000000000000000000000000000000000000006001600160a01b03168152602090f35b346101e25760403660031901126101e2576020610e9d611d40612351565b60243590612f1e565b346101e25760003660031901126101e2576020600254604051908152f35b346101e25760203660031901126101e2577f328a370bb6ec53773acb5867d48f25ffc194aa9e31ea027d208f6b2ec87383b660206001600160401b03611dab6122f5565b611db36123c9565b16806001600160401b03196004541617600455604051908152a1005b346101e25760003660031901126101e25760206001600160401b0360045460401c16604051908152f35b346101e25760403660031901126101e257611e1261233b565b336001600160a01b03821603611e2e576106e7906004356124e7565b60405163334bd91960e11b8152600490fd5b346101e25760403660031901126101e257611e59612351565b6024356001600160401b0381116101e257611e7890369060040161230b565b6001600160a01b038316929091907f00000000000000000000000000000000000000000000000000000000000000009060005b848110611eb457005b611ebf818686612829565b3590611f59611ece8385612f1e565b88600052600593897f3d8eb7616a8609a4a9e1f7616ef60a24cfb300a82a568ff7a6293696b5aa2774602096808852604060002084600052885260029060ff8260406000200154161580611f5f575b611f2690612925565b8360005288526040600020846000528852604060002001966001978860ff19825416179055604051858152a38486612971565b01611eab565b50851515611f1d565b346101e25760403660031901126101e257600435611f8461233b565b816000526000602052611f9e600160406000200154612443565b611fa88183612469565b611fae57005b6000918252600160205260409091206106e7916001600160a01b0316906125c5565b346101e25760203660031901126101e25760043560005260006020526020600160406000200154604051908152f35b346101e25760203660031901126101e2576004356001600160401b0381116101e25761202f90369060040161230b565b6120376127ba565b5060005b81811061204457005b61204f818385612829565b359061205a82612d9b565b82600052600660205260406000209060405161207581612762565b82546001600160a01b038116825260a01c60ff16151560208201526040519461209d8661277e565b60ff6001850154169360028510156104945760ff600a61214692896121d29860019b526120cc60028301612873565b60208201526120dd60038301612873565b604082015260408701526004810154606087015260058101546080870152600681015460a0870152600781015460c08701526001600160401b03600882015481811660e089015260401c1661010087015260098101546101208701520154166101408401612919565b602082015115806121d8575b61215b90612925565b80600052600660205260406000208660a01b60ff60a01b198254161790557f9f7b45de55086c8416b9e7fd8b6be00bf55cf4615c415c44c81742c5e69cc0266020604051858152a2848060a01b039051167f0000000000000000000000000000000000000000000000000000000000000000612971565b0161203b565b50821515612152565b346101e25760003660031901126101e25760206001600160401b0360045416604051908152f35b346101e25760203660031901126101e25760043563ffffffff60e01b81168091036101e257602090635a05180f60e01b811490811561224d575b506040519015158152f35b637965db0b60e01b811491508115612267575b5082612242565b6301ffc9a760e01b14905082612260565b346101e25760203660031901126101e2577ff750552447f8c655904578cf2eccddb1dd4c1f32a661ae1a6d5469e3ceefc78660206122b46122f5565b6122bc6123c9565b60045467ffffffffffffffff60401b8260401b169067ffffffffffffffff60401b1916176004556001600160401b0360405191168152a1005b600435906001600160401b03821682036101e257565b9181601f840112156101e2578235916001600160401b0383116101e2576020808501948460051b0101116101e257565b602435906001600160a01b03821682036101e257565b600435906001600160a01b03821682036101e257565b9060028210156104945752565b60005b8381106123875750506000910152565b8181015183820152602001612377565b906020916123b081518092818552858086019101612374565b601f01601f1916010190565b9060038210156104945752565b3360009081527f7d7ffb7a348e1c6a02869081a26547b49160dd3df72d1d75a570eb9b698292ec60205260409020547fa49807205ce4d355092ef5a8a18f56e8913cf4a201fbe287825b095693c217759060ff16156124255750565b6044906040519063e2517d3f60e01b82523360048301526024820152fd5b80600052600060205260406000203360005260205260ff60406000205416156124255750565b9060009180835282602052604083209160018060a01b03169182845260205260ff604084205416156000146124e257808352826020526040832082845260205260408320600160ff198254161790557f2f8788117e7eff1d82e926ec794901d17c78024a50270940304540a733656f0d339380a4600190565b505090565b6124f18282612522565b91826124fc57505090565b60009182526001602052604090912061251e916001600160a01b031690612672565b5090565b9060009180835282602052604083209160018060a01b03169182845260205260ff6040842054166000146124e25780835282602052604083208284526020526040832060ff1981541690557ff6391f5c32d9c69d2a47ea670b442974b53935d1edc7fd64eb21e047a839171b339380a4600190565b80548210156125af5760005260206000200190600090565b634e487b7160e01b600052603260045260246000fd5b919060018301600090828252806020526040822054156000146126495784549468010000000000000000861015612635578361262561260e886001604098999a01855584612597565b819391549060031b91821b91600019901b19161790565b9055549382526020522055600190565b634e487b7160e01b83526041600452602483fd5b50925050565b9190820391821161265c57565b634e487b7160e01b600052601160045260246000fd5b9060018201906000928184528260205260408420549081151560001461275b576000199180830181811161274757825490848201918211612733578181036126fe575b505050805480156126ea578201916126cd8383612597565b909182549160031b1b191690555582526020526040812055600190565b634e487b7160e01b86526031600452602486fd5b61271e61270e61260e9386612597565b90549060031b1c92839286612597565b905586528460205260408620553880806126b5565b634e487b7160e01b88526011600452602488fd5b634e487b7160e01b87526011600452602487fd5b5050505090565b61016081019081106001600160401b038211176115a257604052565b606081019081106001600160401b038211176115a257604052565b90601f801991011681019081106001600160401b038211176115a257604052565b604051906127c782612762565b816101406000918281528260208201526040516127e38161277e565b838152606060208201526060604082015260408201528260608201528260808201528260a08201528260c08201528260e082015282610100820152826101208201520152565b91908110156125af5760051b0190565b90600182811c92168015612869575b602083101461285357565b634e487b7160e01b600052602260045260246000fd5b91607f1691612848565b906040519182600082549261288784612839565b9081845260019485811690816000146128f657506001146128b3575b50506128b192500383612799565b565b9093915060005260209081600020936000915b8183106128de5750506128b1935082010138806128a3565b855488840185015294850194879450918301916128c6565b9150506128b194506020925060ff191682840152151560051b82010138806128a3565b60038210156104945752565b1561292c57565b60405162461bcd60e51b815260206004820152601860248201527f4572726f723a20496e76616c6964206f7065726174696f6e00000000000000006044820152606490fd5b60405163a9059cbb60e01b60208201526001600160a01b03909216602483015260448083019390935291815260808101916001600160401b038311828410176115a2576128b1926040525b60018060a01b031690612a06600080836020829551910182875af13d15612a65573d906129e882612a6d565b916129f66040519384612799565b82523d84602084013e5b84612a88565b908151918215159283612a36575b505050612a1e5750565b60249060405190635274afe760e01b82526004820152fd5b819293509060209181010312612a61576020015190811591821503612a5e5750388080612a14565b80fd5b5080fd5b606090612a00565b6001600160401b0381116115a257601f01601f191660200190565b90612aaf5750805115612a9d57805190602001fd5b604051630a12f52160e11b8152600490fd5b81511580612ae2575b612ac0575090565b604051639996b31560e01b81526001600160a01b039091166004820152602490fd5b50803b15612ab8565b15612af257565b60405162461bcd60e51b815260206004820152601360248201527222b93937b91d102bb937b7339037b83a34b7b760691b6044820152606490fd5b15612b3457565b606460405162461bcd60e51b815260206004820152602060248201527f4572726f723a20496e73737566696369656e7420616d6f756e7420696e7075746044820152fd5b9190916001600160401b038080941691160191821161265c57565b929192612b9f82612a6d565b91612bad6040519384612799565b8294818452818301116101e2578281602093846000960137010152565b9080601f830112156101e257816020612be593359101612b93565b90565b5160038110156104945790565b9060038110156104945760ff80198354169116179055565b9035601e19823603018112156101e25701602081359101916001600160401b0382116101e25781360383136101e257565b908060209392818452848401376000828201840152601f01601f1916010190565b6040516323b872dd60e01b60208201526001600160a01b03928316602482015292909116604483015260648083019390935291815260a08101918183106001600160401b038411176115a2576128b1926040526129bc565b15612cbe57565b60405162461bcd60e51b815260206004820152601860248201527f4572726f723a20456e747279206973206e6f74206f70656e00000000000000006044820152606490fd5b15612d0a57565b606460405162461bcd60e51b815260206004820152602060248201527f4572726f723a204d616b6520612070726564696374696f6e20696e73746561646044820152fd5b801561265c576000190190565b9190820180921161265c57565b8181029291811591840414171561265c57565b8115612d85570490565b634e487b7160e01b600052601260045260246000fd5b612dbb612daa61271092612dbf565b505060ff60045460801c1690612d68565b0490565b9060009182526006602052604090818320928251612ddc81612762565b84546001600160a01b038116825260a01c60ff16151560208201528351612e028161277e565b60ff6001870154166002811015612f0a578152612ea79190612e2660028801612873565b6020820152612e3760038801612873565b8682015285820152600486015460608201526005860154608082015261014060ff600a60068901549860a08501998a5260078101549860c08601998a5260088201546001600160401b039182821660e08901521c1661010086015260098101546101208601520154169101612919565b835183510193670de0b6b3a764000090818602918683041486151715612ef6575180612ee75750815b93519081612edd57505090565b612be59250612d7b565b612ef19082612d7b565b612ed0565b634e487b7160e01b83526011600452602483fd5b634e487b7160e01b84526021600452602484fd5b6001600160a01b0390811660009081526005602090815260408083208584528252808320815191969594909290612f548361277e565b60ff91612f648386541685612919565b8260026001870154968387019788520154161515898501528686526006815288862090838a5193612f9485612762565b8354908116855260a01c16151581840152895190612fb18261277e565b8460018401541660028110156131375761305493838793600a936101409652612fdc60028401612873565b908201528d612fed60038401612873565b908201528d87015260049c8d820154606088015260058201546080880152600682015460a0880152600782015460c088015260088201546001600160401b039182821660e08a01521c16610100870152600981015461012087015201541692019182612919565b805160038110156131245715908115613104575b506130fb5761307d90875460801c1694612dbf565b929091505160038110156130e8576001146130db575061309e915190612d68565b612710928303918383116130c85750670de0b6b3a7640000939450906130c391612d68565b040490565b634e487b7160e01b815260118652602490fd5b905061309e915190612d68565b634e487b7160e01b855260218852602485fd5b50919450505050565b90505160038110156130e857825190600382101561312457141538613068565b634e487b7160e01b865260218952602486fd5b634e487b7160e01b89526021600452602489fd5b903590601e19813603018212156101e257018035906001600160401b0382116101e2576020019181360383136101e257565b9160009160006004546001600160401b03906040826131a28184841c16824216612b78565b16938386169485101561335a57602098898101906131c0828261314b565b6131e18d875183819483830196873781018883820152038084520182612799565b51902091848201928c6132176131f7868661314b565b919092895183819483830196873781018a83820152038084520182612799565b519020111561333e5761323c61324761323361324f938561314b565b9290958561314b565b9590925b3691612b93565b933691612b93565b9035600281101561333a57918b6132ac60216007948897968b995194859281613281818601998a815193849201612374565b840161329582518093858085019101612374565b019160f81b90820152036001810184520182612799565b5190209a8b835252205416918383109485613322575b85156132eb575b50505082156132e1575b50506132db57565b60019150565b14905038806132d3565b92945084841092859284613307575b50505050913880806132c9565b8293945091613317921690612b78565b1611823880806132fa565b9450838161333281851686612b78565b1611946132c2565b8380fd5b9161335261324761323361324f938561314b565b959092613240565b815162461bcd60e51b815260206004820152601c60248201527f4572726f723a20546f6f2066617220696e2074686520667574757265000000006044820152606490fd5b6001600160401b03918216908216039190821161265c57565b9190916133c4818461339e565b926133da6001600160401b039485429116612d5b565b9380821690421610613404576001916133f29161339e565b16156133fe5760029190565b60019190565b50506000919056fea2646970667358221220ce716ee0f065f8500a095857ea0313b96af7221a73dd9d3972437da1f7acc35864736f6c634300081400332f8788117e7eff1d82e926ec794901d17c78024a50270940304540a733656f0da49807205ce4d355092ef5a8a18f56e8913cf4a201fbe287825b095693c21775","linkReferences":{}},"methodIdentifiers":{"ADMIN_ROLE()":"75b238fc","DEFAULT_ADMIN_ROLE()":"a217fddf","battleIds()":"4b937f18","claimMarketMakerIncentives(uint256[])":"112c63be","claimWin(address,uint256[])":"30d36f4d","createBattle(address,(uint8,string,string),uint8,uint256,uint64)":"85e03f68","duration()":"0fb5a6b4","futureLimit()":"3e3e88f3","generateHash((uint8,string,string),uint64)":"925cc3d3","getBattle(uint256)":"6dd0ce7a","getMarketMakerIncentive(uint256)":"8fbdaa60","getPayout(address,uint256)":"565eea19","getPrizePoolAndOdds(uint256)":"b53c69bf","getRoleAdmin(bytes32)":"248a9ca3","getRoleMember(bytes32,uint256)":"9010d07c","getRoleMemberCount(bytes32)":"ca15c873","getUserPrediction(address,uint256)":"a739657d","grantRole(bytes32,address)":"2f2ff15d","hasRole(bytes32,address)":"91d14854","makePrediction(address,uint256,uint8,uint256)":"c72d00dd","makePredictionWithTickets(address,uint256,uint8,uint256[])":"985ba970","marketMakerIncentive()":"c7a74adf","minAmount()":"9b2cb5d8","renounceRole(bytes32,address)":"36568abe","resolveBattle(uint256)":"d93705a5","revokeRole(bytes32,address)":"d547741f","setDuration(uint64)":"4b852c03","setFutureLimit(uint64)":"0183cc38","setMarketMakerIncentive(uint8)":"8de36616","setMinAmount(uint256)":"897b0637","supportsInterface(bytes4)":"01ffc9a7","ticket()":"6cc25db7","token()":"fc0c546a","updateAmount(address,uint256,uint256,bool)":"7e207230","updateOption(address,uint256)":"eb1c16be"},"id":47}