{"abi":[{"type":"constructor","inputs":[{"name":"defaultAdmin","type":"address","internalType":"address"},{"name":"_token","type":"address","internalType":"address"},{"name":"_minAmount","type":"uint256","internalType":"uint256"}],"stateMutability":"nonpayable"},{"type":"function","name":"ADMIN_ROLE","inputs":[],"outputs":[{"name":"","type":"bytes32","internalType":"bytes32"}],"stateMutability":"view"},{"type":"function","name":"DEFAULT_ADMIN_ROLE","inputs":[],"outputs":[{"name":"","type":"bytes32","internalType":"bytes32"}],"stateMutability":"view"},{"type":"function","name":"battleIds","inputs":[],"outputs":[{"name":"","type":"uint256","internalType":"uint256"}],"stateMutability":"view"},{"type":"function","name":"claimMarketMakerIncentives","inputs":[{"name":"battleIds_","type":"uint256[]","internalType":"uint256[]"}],"outputs":[],"stateMutability":"nonpayable"},{"type":"function","name":"claimWin","inputs":[{"name":"who","type":"address","internalType":"address"},{"name":"battleIds_","type":"uint256[]","internalType":"uint256[]"}],"outputs":[],"stateMutability":"nonpayable"},{"type":"function","name":"createBattle","inputs":[{"name":"creator","type":"address","internalType":"address"},{"name":"manifest","type":"tuple","internalType":"struct BattleManifest","components":[{"name":"battleType","type":"uint8","internalType":"enum BattleType"},{"name":"option0Id","type":"string","internalType":"string"},{"name":"option1Id","type":"string","internalType":"string"}]},{"name":"option","type":"uint8","internalType":"enum BattleOption"},{"name":"amount","type":"uint256","internalType":"uint256"},{"name":"secondsBeforeStart","type":"uint64","internalType":"uint64"}],"outputs":[],"stateMutability":"nonpayable"},{"type":"function","name":"duration","inputs":[],"outputs":[{"name":"","type":"uint64","internalType":"uint64"}],"stateMutability":"view"},{"type":"function","name":"futureLimit","inputs":[],"outputs":[{"name":"","type":"uint64","internalType":"uint64"}],"stateMutability":"view"},{"type":"function","name":"generateHash","inputs":[{"name":"manifest","type":"tuple","internalType":"struct BattleManifest","components":[{"name":"battleType","type":"uint8","internalType":"enum BattleType"},{"name":"option0Id","type":"string","internalType":"string"},{"name":"option1Id","type":"string","internalType":"string"}]},{"name":"startTimestamp","type":"uint64","internalType":"uint64"}],"outputs":[{"name":"hash","type":"bytes32","internalType":"bytes32"},{"name":"isActive","type":"bool","internalType":"bool"}],"stateMutability":"view"},{"type":"function","name":"getBattle","inputs":[{"name":"battleId","type":"uint256","internalType":"uint256"}],"outputs":[{"name":"","type":"tuple","internalType":"struct BattleData","components":[{"name":"creator","type":"address","internalType":"address"},{"name":"hasClaimedIncentive","type":"bool","internalType":"bool"},{"name":"manifest","type":"tuple","internalType":"struct BattleManifest","components":[{"name":"battleType","type":"uint8","internalType":"enum BattleType"},{"name":"option0Id","type":"string","internalType":"string"},{"name":"option1Id","type":"string","internalType":"string"}]},{"name":"option0Count","type":"uint256","internalType":"uint256"},{"name":"option1Count","type":"uint256","internalType":"uint256"},{"name":"option0PrizePool","type":"uint256","internalType":"uint256"},{"name":"option1PrizePool","type":"uint256","internalType":"uint256"},{"name":"startTimestamp","type":"uint64","internalType":"uint64"},{"name":"closeTimestamp","type":"uint64","internalType":"uint64"},{"name":"aPIRequestId","type":"uint256","internalType":"uint256"},{"name":"winOption","type":"uint8","internalType":"enum BattleOption"}]}],"stateMutability":"view"},{"type":"function","name":"getMarketMakerIncentive","inputs":[{"name":"battleId","type":"uint256","internalType":"uint256"}],"outputs":[{"name":"","type":"uint256","internalType":"uint256"}],"stateMutability":"view"},{"type":"function","name":"getPayout","inputs":[{"name":"who","type":"address","internalType":"address"},{"name":"battleId","type":"uint256","internalType":"uint256"}],"outputs":[{"name":"","type":"uint256","internalType":"uint256"}],"stateMutability":"view"},{"type":"function","name":"getPrizePoolAndOdds","inputs":[{"name":"battleId","type":"uint256","internalType":"uint256"}],"outputs":[{"name":"prizePool","type":"uint256","internalType":"uint256"},{"name":"option0Odd","type":"uint256","internalType":"uint256"},{"name":"option1Odd","type":"uint256","internalType":"uint256"}],"stateMutability":"view"},{"type":"function","name":"getRoleAdmin","inputs":[{"name":"role","type":"bytes32","internalType":"bytes32"}],"outputs":[{"name":"","type":"bytes32","internalType":"bytes32"}],"stateMutability":"view"},{"type":"function","name":"getUserPrediction","inputs":[{"name":"user","type":"address","internalType":"address"},{"name":"battleId","type":"uint256","internalType":"uint256"}],"outputs":[{"name":"","type":"tuple","internalType":"struct UserPrediction","components":[{"name":"option","type":"uint8","internalType":"enum BattleOption"},{"name":"amount","type":"uint256","internalType":"uint256"},{"name":"isClosed","type":"bool","internalType":"bool"}]}],"stateMutability":"view"},{"type":"function","name":"grantRole","inputs":[{"name":"role","type":"bytes32","internalType":"bytes32"},{"name":"account","type":"address","internalType":"address"}],"outputs":[],"stateMutability":"nonpayable"},{"type":"function","name":"hasRole","inputs":[{"name":"role","type":"bytes32","internalType":"bytes32"},{"name":"account","type":"address","internalType":"address"}],"outputs":[{"name":"","type":"bool","internalType":"bool"}],"stateMutability":"view"},{"type":"function","name":"makePrediction","inputs":[{"name":"who","type":"address","internalType":"address"},{"name":"battleId","type":"uint256","internalType":"uint256"},{"name":"option","type":"uint8","internalType":"enum BattleOption"},{"name":"amount","type":"uint256","internalType":"uint256"}],"outputs":[],"stateMutability":"nonpayable"},{"type":"function","name":"marketMakerIncentive","inputs":[],"outputs":[{"name":"","type":"uint8","internalType":"uint8"}],"stateMutability":"view"},{"type":"function","name":"minAmount","inputs":[],"outputs":[{"name":"","type":"uint256","internalType":"uint256"}],"stateMutability":"view"},{"type":"function","name":"renounceRole","inputs":[{"name":"role","type":"bytes32","internalType":"bytes32"},{"name":"callerConfirmation","type":"address","internalType":"address"}],"outputs":[],"stateMutability":"nonpayable"},{"type":"function","name":"resolveBattle","inputs":[{"name":"battleId","type":"uint256","internalType":"uint256"}],"outputs":[],"stateMutability":"nonpayable"},{"type":"function","name":"revokeRole","inputs":[{"name":"role","type":"bytes32","internalType":"bytes32"},{"name":"account","type":"address","internalType":"address"}],"outputs":[],"stateMutability":"nonpayable"},{"type":"function","name":"setDuration","inputs":[{"name":"_duration","type":"uint64","internalType":"uint64"}],"outputs":[],"stateMutability":"nonpayable"},{"type":"function","name":"setFutureLimit","inputs":[{"name":"_futurelimit","type":"uint64","internalType":"uint64"}],"outputs":[],"stateMutability":"nonpayable"},{"type":"function","name":"setMarketMakerIncentive","inputs":[{"name":"_marketMakerIncentive","type":"uint8","internalType":"uint8"}],"outputs":[],"stateMutability":"nonpayable"},{"type":"function","name":"setMinAmount","inputs":[{"name":"_minAmount","type":"uint256","internalType":"uint256"}],"outputs":[],"stateMutability":"nonpayable"},{"type":"function","name":"supportsInterface","inputs":[{"name":"interfaceId","type":"bytes4","internalType":"bytes4"}],"outputs":[{"name":"","type":"bool","internalType":"bool"}],"stateMutability":"view"},{"type":"function","name":"token","inputs":[],"outputs":[{"name":"","type":"address","internalType":"contract IERC20"}],"stateMutability":"view"},{"type":"function","name":"updateAmount","inputs":[{"name":"who","type":"address","internalType":"address"},{"name":"battleId","type":"uint256","internalType":"uint256"},{"name":"amount","type":"uint256","internalType":"uint256"},{"name":"topUp","type":"bool","internalType":"bool"}],"outputs":[],"stateMutability":"nonpayable"},{"type":"function","name":"updateOption","inputs":[{"name":"who","type":"address","internalType":"address"},{"name":"battleId","type":"uint256","internalType":"uint256"}],"outputs":[],"stateMutability":"nonpayable"},{"type":"event","name":"ClaimMarketMakerIncentive","inputs":[{"name":"battleId","type":"uint256","indexed":true,"internalType":"uint256"},{"name":"incentive","type":"uint256","indexed":false,"internalType":"uint256"}],"anonymous":false},{"type":"event","name":"ClaimWin","inputs":[{"name":"who","type":"address","indexed":true,"internalType":"address"},{"name":"battleId","type":"uint256","indexed":true,"internalType":"uint256"},{"name":"payout","type":"uint256","indexed":false,"internalType":"uint256"}],"anonymous":false},{"type":"event","name":"CreateBattle","inputs":[{"name":"creator","type":"address","indexed":true,"internalType":"address"},{"name":"battleType","type":"uint8","indexed":true,"internalType":"enum BattleType"},{"name":"battleId","type":"uint256","indexed":false,"internalType":"uint256"},{"name":"hash","type":"bytes32","indexed":true,"internalType":"bytes32"},{"name":"manifest","type":"tuple","indexed":false,"internalType":"struct BattleManifest","components":[{"name":"battleType","type":"uint8","internalType":"enum BattleType"},{"name":"option0Id","type":"string","internalType":"string"},{"name":"option1Id","type":"string","internalType":"string"}]}],"anonymous":false},{"type":"event","name":"MakePrediction","inputs":[{"name":"who","type":"address","indexed":true,"internalType":"address"},{"name":"battleId","type":"uint256","indexed":true,"internalType":"uint256"},{"name":"amount","type":"uint256","indexed":false,"internalType":"uint256"},{"name":"option","type":"uint8","indexed":true,"internalType":"enum BattleOption"}],"anonymous":false},{"type":"event","name":"ResolveBattle","inputs":[{"name":"battleId","type":"uint256","indexed":true,"internalType":"uint256"},{"name":"winOption","type":"uint8","indexed":true,"internalType":"enum BattleOption"},{"name":"aPIRequestId","type":"uint256","indexed":true,"internalType":"uint256"},{"name":"timestamp","type":"uint256","indexed":false,"internalType":"uint256"}],"anonymous":false},{"type":"event","name":"RoleAdminChanged","inputs":[{"name":"role","type":"bytes32","indexed":true,"internalType":"bytes32"},{"name":"previousAdminRole","type":"bytes32","indexed":true,"internalType":"bytes32"},{"name":"newAdminRole","type":"bytes32","indexed":true,"internalType":"bytes32"}],"anonymous":false},{"type":"event","name":"RoleGranted","inputs":[{"name":"role","type":"bytes32","indexed":true,"internalType":"bytes32"},{"name":"account","type":"address","indexed":true,"internalType":"address"},{"name":"sender","type":"address","indexed":true,"internalType":"address"}],"anonymous":false},{"type":"event","name":"RoleRevoked","inputs":[{"name":"role","type":"bytes32","indexed":true,"internalType":"bytes32"},{"name":"account","type":"address","indexed":true,"internalType":"address"},{"name":"sender","type":"address","indexed":true,"internalType":"address"}],"anonymous":false},{"type":"event","name":"SetDuration","inputs":[{"name":"duration","type":"uint64","indexed":false,"internalType":"uint64"}],"anonymous":false},{"type":"event","name":"SetFutureLimit","inputs":[{"name":"futureLimit","type":"uint64","indexed":false,"internalType":"uint64"}],"anonymous":false},{"type":"event","name":"SetMarketMakerIncentive","inputs":[{"name":"marketMakerIncentive","type":"uint8","indexed":false,"internalType":"uint8"}],"anonymous":false},{"type":"event","name":"SetMinAmount","inputs":[{"name":"minAmount","type":"uint256","indexed":false,"internalType":"uint256"}],"anonymous":false},{"type":"event","name":"UpdateAmount","inputs":[{"name":"who","type":"address","indexed":true,"internalType":"address"},{"name":"battleId","type":"uint256","indexed":true,"internalType":"uint256"},{"name":"amount","type":"uint256","indexed":false,"internalType":"uint256"},{"name":"topUp","type":"bool","indexed":true,"internalType":"bool"}],"anonymous":false},{"type":"event","name":"UpdateOption","inputs":[{"name":"who","type":"address","indexed":true,"internalType":"address"},{"name":"battleId","type":"uint256","indexed":true,"internalType":"uint256"},{"name":"oldOption","type":"uint8","indexed":false,"internalType":"enum BattleOption"},{"name":"newOption","type":"uint8","indexed":false,"internalType":"enum BattleOption"}],"anonymous":false},{"type":"error","name":"AccessControlBadConfirmation","inputs":[]},{"type":"error","name":"AccessControlUnauthorizedAccount","inputs":[{"name":"account","type":"address","internalType":"address"},{"name":"neededRole","type":"bytes32","internalType":"bytes32"}]},{"type":"error","name":"AddressEmptyCode","inputs":[{"name":"target","type":"address","internalType":"address"}]},{"type":"error","name":"AddressInsufficientBalance","inputs":[{"name":"account","type":"address","internalType":"address"}]},{"type":"error","name":"FailedInnerCall","inputs":[]},{"type":"error","name":"SafeERC20FailedOperation","inputs":[{"name":"token","type":"address","internalType":"address"}]}],"bytecode":{"object":"0x6080346200014c57601f6200302838819003918201601f19168301916001600160401b0383118484101762000151578084926060946040528339810103126200014c578062000052620000be9262000167565b906040620000636020830162000167565b910151600480546001600160881b031916706400000000001275000000000000093a80179055600180546001600160a01b0319166001600160a01b0390931692909217909155600355620000b7816200017c565b50620001fc565b50600080805260208190527fad3228b676f7d3cd4284a5443f17f1962b36e491b30a40b2405849e597ba5fb68054908290557fbd79b86ffe0ab8e8776151514217cd7cacd52c909f66475c3af44e129f0b00ff90829081838180a460008051602062003008833981519152808352600160408420019183835493558380a4604051612d5a90816200028e8239f35b600080fd5b634e487b7160e01b600052604160045260246000fd5b51906001600160a01b03821682036200014c57565b6001600160a01b031660008181527fad3228b676f7d3cd4284a5443f17f1962b36e491b30a40b2405849e597ba5fb5602052604081205490919060ff16620001f857818052816020526040822081835260205260408220600160ff19825416179055339160008051602062002fe88339815191528180a4600190565b5090565b6001600160a01b031660008181527f7d7ffb7a348e1c6a02869081a26547b49160dd3df72d1d75a570eb9b698292ec6020526040812054909190600080516020620030088339815191529060ff166200028857808352826020526040832082845260205260408320600160ff1982541617905560008051602062002fe8833981519152339380a4600190565b50509056fe6080604052600436101561001257600080fd5b60003560e01c80630183cc3814611d5d57806301ffc9a714611d075780630fb5a6b414611ce0578063112c63be14611b17578063248a9ca314611ae85780632f2ff15d14611aa957806330d36f4d1461199f57806336568abe146119585780633e3e88f31461192e5780634b852c03146118c65780634b937f18146118a8578063565eea19146118815780636dd0ce7a1461169757806375b238fc1461165c5780637e2072301461134557806385e03f6814610c2d578063897b063714610be15780638de3661614610b1f5780638fbdaa6014610af957806391d1485414610aac578063925cc3d314610a525780639b2cb5d814610a34578063a217fddf14610a18578063a739657d14610969578063b53c69bf14610938578063c72d00dd146106aa578063c7a74adf14610686578063d547741f14610645578063d93705a514610454578063eb1c16be1461019f5763fc0c546a1461017157600080fd5b3461019a57600036600319011261019a576001546040516001600160a01b039091168152602090f35b600080fd5b3461019a57604036600319011261019a576101b8611e36565b6024359081600052602090600682526040600020604051906101d982612041565b80549260018060a01b03808516845260ff809560a01c16151586850152604051916102038361205d565b600193868582015416906002948583101561043e576102bc928152610229868301612168565b8a82015261023960038301612168565b6040820152604088015260048101546060880152600596878201546080820152600682015460a0820152600782015460c08201526008820154906102b160e08201916101408c600a6001600160401b0397888881809a16895260401c166101008601526009810154610120860152015416910161220e565b5116904216106125c2565b169485600052838152604060002087600052815261030b60406000208684604051926102e78461205d565b6102f4838254168561220e565b8781015486850152015416151560408201526124f3565b600381101561043e5761031f90151561260e565b8660005260068152604060002093866000528082526040600020886000528252604060002095604051906103528261205d565b61035f818954168361220e565b848689015498858401998a52015416151560408201525194600386101561043e577f8fdef3e5d8f09fac5a82cff7ff935706e9ad948b4e31f97bc826e4916342f65596604096860361040f5760076103e49160048401600019815401905584840188815401905580516103d760068601918254612666565b9055519201918254612673565b905586600052815283600020876000528152836000208260ff198254161790558351928352820152a3005b60066103e49184849897980160001981540190556004840187815401905580516103d760078601918254612666565b634e487b7160e01b600052602160045260246000fd5b3461019a5760208060031936011261019a5760043590610472611eae565b816000526006815260406000206040519061048c82612041565b80546001600160a01b038116835260a01c60ff161515838301526040516104b28161205d565b60ff600183015416600281101561043e5781526104d160028301612168565b848201526104e160038301612168565b604082015260408301526004810154606083015260058101546080830152600681015460a0830190815260078201549260c0810193845261056b60088401549460e083019361056261014060ff600a6001600160401b03998a8c168a528a6101008a019c60401c168c5260098101546101208a01520154169501948561220e565b51905190612673565b151580610636575b61057c9061221a565b51600381101561043e576105f15751915161059b929082169116612ccf565b929091816000526006815283600960406000206105bb86600a8301612500565b0155600383101561043e577f5843e43ec048396840078c9a963d665e855d02f20e517bd343de6083a146701e90604051428152a4005b60405162461bcd60e51b815260048101859052601c60248201527f4572726f723a20426174746c6520636c6f73656420616c7265616479000000006044820152606490fd5b50835183164284161015610573565b3461019a57604036600319011261019a57610684600435610664611e20565b9080600052600060205261067f600160406000200154611f28565b611fcc565b005b3461019a57600036600319011261019a57602060ff60045460801c16604051908152f35b3461019a57608036600319011261019a576106c3611e36565b60243560443591600383101561019a5760643590826000526020600681526040600020926040516106f381612041565b84546001600160a01b03808216835260a09190911c60ff16151584830152604051909561071f8261205d565b60019260ff848301541692600284101561043e576107cc93815261074560028401612168565b8782015261075560038401612168565b604082015260408201526004820154606082015260058201546080820152600682015460a0820152600782015460c08201526008820154906102b160e082019161014060ff600a6001600160401b0397888881809a16895260401c166101008601526009810154610120860152015416910161220e565b6107d78715156123e0565b6107e5600354831015612422565b8560005260068352604060002093858116958660005260058552604060002088600052855282604060002001546108fa57825461082692859230921661256a565b604051936108338561205d565b61083d888661220e565b8385018381526040860195600087528760005260058652604060002089600052865260406000209051600381101561043e577fdafe4f52c3103275958f5247f2245da359ecf060dd13f591bf6069dca1b9a1f6976108bc936108a160029385612500565b518684015551151591019060ff801983541691151516179055565b8782036108e15760069160048201908154019055018181540190555b604051908152a4005b60079160058201908154019055018181540190556108d8565b60405162461bcd60e51b8152600481018690526016602482015275155c19185d1948195b9d1c9a595cc81a5b9cdd19585960521b6044820152606490fd5b3461019a57602036600319011261019a5760606109566004356126d7565b9060405192835260208301526040820152f35b3461019a57604036600319011261019a57610982611e36565b6000604080516109918161205d565b828152826020820152015260018060a01b03166000526005602052604060002060243560005260205260606040600020604051906109ce8261205d565b6109dc60ff8254168361220e565b60ff60026001830154926020850193845201541690604083019115158252610a08604051809451611ea1565b5160208301525115156040820152f35b3461019a57600036600319011261019a57602060405160008152f35b3461019a57600036600319011261019a576020600354604051908152f35b3461019a5760031960403682011261019a576004356001600160401b039182821161019a57606090823603011261019a57602435918216820361019a57604091610a9e91600401612a95565b825191825215156020820152f35b3461019a57604036600319011261019a57610ac5611e20565b600435600052600060205260406000209060018060a01b0316600052602052602060ff604060002054166040519015158152f35b3461019a57602036600319011261019a576020610b176004356126b3565b604051908152f35b3461019a57602036600319011261019a5760043560ff81169081810361019a57610b47611eae565b81151580610bd5575b15610ba0576004805460ff60801b191660809290921b60ff60801b169190911790556040519081527f72b7c34ea56e4656cd85418e9fc334bdcd3b7763cba453719887a897cbfa466190602090a1005b60405162461bcd60e51b815260206004820152600d60248201526c125b9d985b1a59081a5b9c1d5d609a1b6044820152606490fd5b506103e8821115610b50565b3461019a57602036600319011261019a577f31e8afaf594e92b0e3a71872c4b570994eaf53a4fb17977eb469c2b786cd70236020600435610c20611eae565b80600355604051908152a1005b3461019a5760031960a03682011261019a57610c47611e36565b906001600160401b036024351161019a576060906024353603011261019a576003604435101561019a576084356001600160401b038116810361019a57610cb490610c9560443515156123e0565b610ca56003546064351015612422565b6001600160401b03421661246d565b610cc381602435600401612a95565b6112f657600154610ce49060643590309086906001600160a01b031661256a565b80600052600760205260406000206001600160401b0383166001600160401b031982541617905560025491600183016002556001604435146000146112e65760643590600060016000925b610d446001600160401b03600454168261246d565b9260405195610d5287612041565b6001600160a01b038a16875260006020880152604051610d718161205d565b600260243560040135101561019a576024356004013581526024803501356001600160401b03811161019a57610daf906004369160243501016124d5565b602082015260446024350135966001600160401b03881161019a5760ff6001600160401b0398968193610deb8b996004369160243501016124d5565b604082015260408c01521660608a015216608088015260a087015260c08601521660e0840152166101008201526000610120820152600061014082015282600052600660205260406000209060018060a01b0381511682549060ff60a01b6020840151151560a01b16916affffffffffffffffffffff60a81b161717825560408101518051600281101561043e57600184019060ff8019835416911617905560208101518051906001600160401b03821161120b57610ead600286015461212e565b601f811161129f575b50602090601f831160011461122c57604093929160009183611221575b50508160011b916000199060031b1c19161760028501555b01518051906001600160401b03821161120b57610f0b600385015461212e565b601f81116111c4575b50602090601f83116001146111505761014093929160009183611145575b50508160011b916000199060031b1c19161760038401555b606081015160048401556080810151600584015560a0810151600684015560c08101516007840155600883016001600160401b0360e08301511681549067ffffffffffffffff60401b61010085015160401b16916fffffffffffffffffffffffffffffffff19161717905561012081015160098401550151600381101561043e57600a610fd79201612500565b61108060405183815260406020820152610ffa6040820160243560040135611e4c565b7fe1b96a70e6a6f4fc44ea0fd297921cf5db8688a89c5ad3a87a985278c775bff76110416110316024803501602435600401612518565b60608086015260a0850191612549565b9180611057604460243501602435600401612518565b828603603f1901608084015260046024350135966001600160a01b038b16969092909190612549565b0390a460405161108f8161205d565b61109b6044358261220e565b60208101906064358252604081016000815260018060a01b03851660005260056020526040600020846000526020526040600020915190600382101561043e57611107936110eb60029385612500565b51600184015551151591019060ff801983541691151516179055565b6040516064358152604435926001600160a01b0316907fdafe4f52c3103275958f5247f2245da359ecf060dd13f591bf6069dca1b9a1f690602090a4005b015190508880610f32565b906003850160005260206000209160005b601f19851681106111ac57509183916001936101409695601f19811610611193575b505050811b016003840155610f4a565b015160001960f88460031b161c19169055888080611183565b91926020600181928685015181550194019201611161565b600385016000526020600020601f840160051c810160208510611204575b601f830160051c820181106111f8575050610f14565b600081556001016111e2565b50806111e2565b634e487b7160e01b600052604160045260246000fd5b015190508980610ed3565b906002860160005260206000209160005b601f1985168110611287575091839160019360409695601f1981161061126e575b505050811b016002850155610eeb565b015160001960f88460031b161c1916905589808061125e565b9192602060018192868501518155019401920161123d565b600286016000526020600020601f840160051c8101602085106112df575b601f830160051c820181106112d3575050610eb6565b600081556001016112bd565b50806112bd565b6000906064356000600192610d2f565b60405162461bcd60e51b815260206004820152602160248201527f4572726f723a204d616e696665737420697320616c72656164792061637469766044820152606560f81b6064820152608490fd5b3461019a57608036600319011261019a5761135e611e36565b60643515156064350361019a57602435600052600660205260406000206040519061138882612041565b80546001600160a01b038116835260a01c60ff1615156020830152604051916113b08361205d565b60ff60018301541692600284101561043e576113e59381526113d460028401612168565b602082015261075560038401612168565b60018060a01b038116908160005260056020526040600020602435600052602052611445604060002060ff60026040519261141f8461205d565b61142c838254168561220e565b60018101546020850152015416151560408201526124f3565b600381101561043e5761145990151561260e565b602435600081815260066020908152604080832086845260058352818420948452939091529081902090518161148e8261205d565b61149c60ff8254168361220e565b60018101549060ff600260208501928484520154161515604084015260643560001461154d575050600154604435946114e191869130916001600160a01b031661256a565b5191600383101561043e57600192830361153f576006018381540190555b019081540190555b60405160443581526064351515917f35342123d95fc9efed2a20c5c3dd54825fe4b7057575e02156951fc46447794a602060243593a4005b6007018381540190556114ff565b6044959391949535809510611617575184146115c6575b600101611572848254612666565b90555192600384101561043e576115ac936001036115b157600601611598838254612666565b90555b6001546001600160a01b0316612266565b611507565b6007016115bf838254612666565b905561159b565b60028101805460ff19166001179055815190600382101561043e57600191820361160257600486016115f88154612659565b90555b9050611564565b600586016116108154612659565b90556115fb565b60405162461bcd60e51b815260206004820152601b60248201527f4572726f723a20496e73756666696369656e742062616c616e636500000000006044820152606490fd5b3461019a57600036600319011261019a5760206040517fa49807205ce4d355092ef5a8a18f56e8913cf4a201fbe287825b095693c217758152f35b3461019a57602036600319011261019a576116b0612099565b5060043560005260066020526040600020604051906116ce82612041565b80546001600160a01b038116835260a01c60ff16151560208301526040516116f58161205d565b60ff600183015416600281101561043e576117989282600a9260ff945261171e60028301612168565b602082015261172f60038301612168565b604082015260408601526004810154606086015260058101546080860152600681015460a0860152600781015460c08601526001600160401b03600882015481811660e088015260401c166101008601526009810154610120860152015416610140830161220e565b60405180916020825260018060a01b03815116602083015260208101511515604083015261187d610140611814604084015161016060608701526117e161018087018251611e4c565b60406117fe602083015160606101a08a01526101e0890190611e7c565b91015186820361017f19016101c0880152611e7c565b9260608101516080860152608081015160a086015260a081015160c086015260c081015160e08601526001600160401b0360e0820151166101008601526001600160401b0361010082015116610120860152610120810151828601520151610160840190611ea1565b0390f35b3461019a57604036600319011261019a576020610b1761189f611e36565b60243590612836565b3461019a57600036600319011261019a576020600254604051908152f35b3461019a57602036600319011261019a577f328a370bb6ec53773acb5867d48f25ffc194aa9e31ea027d208f6b2ec87383b660206001600160401b0361190a611dda565b611912611eae565b16806001600160401b03196004541617600455604051908152a1005b3461019a57600036600319011261019a5760206001600160401b0360045460401c16604051908152f35b3461019a57604036600319011261019a57611971611e20565b336001600160a01b0382160361198d5761068490600435611fcc565b60405163334bd91960e11b8152600490fd5b3461019a57604036600319011261019a576119b8611e36565b6024356001600160401b03811161019a576119d7903690600401611df0565b6001600160a01b038084169391929160005b8481106119f257005b6119fd818686612108565b3590611a9a611a0c8385612836565b88600052600593897f3d8eb7616a8609a4a9e1f7616ef60a24cfb300a82a568ff7a6293696b5aa2774602096808852604060002084600052885260029060ff8260406000200154161580611aa0575b611a649061221a565b8360005288526040600020846000528852604060002001966001978860ff19825416179055604051858152a38486855416612266565b016119e9565b50851515611a5b565b3461019a57604036600319011261019a57610684600435611ac8611e20565b90806000526000602052611ae3600160406000200154611f28565b611f4e565b3461019a57602036600319011261019a5760043560005260006020526020600160406000200154604051908152f35b3461019a57602036600319011261019a576004356001600160401b03811161019a57611b47903690600401611df0565b611b4f612099565b5060005b818110611b5c57005b611b67818385612108565b3590611b72826126b3565b826000526006602052604060002090604051611b8d81612041565b82546001600160a01b038116825260a01c60ff161515602082015260405194611bb58661205d565b60ff60018501541693600285101561043e5760ff600a611c5e9289611cd19860019b52611be460028301612168565b6020820152611bf560038301612168565b604082015260408701526004810154606087015260058101546080870152600681015460a0870152600781015460c08701526001600160401b03600882015481811660e089015260401c166101008701526009810154610120870152015416610140840161220e565b60208201511580611cd7575b611c739061221a565b80600052600660205260406000208660a01b60ff60a01b198254161790557f9f7b45de55086c8416b9e7fd8b6be00bf55cf4615c415c44c81742c5e69cc0266020604051858152a28454905160a086901b8690039081169116612266565b01611b53565b50821515611c6a565b3461019a57600036600319011261019a5760206001600160401b0360045416604051908152f35b3461019a57602036600319011261019a5760043563ffffffff60e01b811680910361019a57602090637965db0b60e01b8114908115611d4c575b506040519015158152f35b6301ffc9a760e01b14905082611d41565b3461019a57602036600319011261019a577ff750552447f8c655904578cf2eccddb1dd4c1f32a661ae1a6d5469e3ceefc7866020611d99611dda565b611da1611eae565b60045467ffffffffffffffff60401b8260401b169067ffffffffffffffff60401b1916176004556001600160401b0360405191168152a1005b600435906001600160401b038216820361019a57565b9181601f8401121561019a578235916001600160401b03831161019a576020808501948460051b01011161019a57565b602435906001600160a01b038216820361019a57565b600435906001600160a01b038216820361019a57565b90600282101561043e5752565b60005b838110611e6c5750506000910152565b8181015183820152602001611e5c565b90602091611e9581518092818552858086019101611e59565b601f01601f1916010190565b90600382101561043e5752565b3360009081527f7d7ffb7a348e1c6a02869081a26547b49160dd3df72d1d75a570eb9b698292ec60205260409020547fa49807205ce4d355092ef5a8a18f56e8913cf4a201fbe287825b095693c217759060ff1615611f0a5750565b6044906040519063e2517d3f60e01b82523360048301526024820152fd5b80600052600060205260406000203360005260205260ff6040600020541615611f0a5750565b9060009180835282602052604083209160018060a01b03169182845260205260ff60408420541615600014611fc757808352826020526040832082845260205260408320600160ff198254161790557f2f8788117e7eff1d82e926ec794901d17c78024a50270940304540a733656f0d339380a4600190565b505090565b9060009180835282602052604083209160018060a01b03169182845260205260ff604084205416600014611fc75780835282602052604083208284526020526040832060ff1981541690557ff6391f5c32d9c69d2a47ea670b442974b53935d1edc7fd64eb21e047a839171b339380a4600190565b61016081019081106001600160401b0382111761120b57604052565b606081019081106001600160401b0382111761120b57604052565b90601f801991011681019081106001600160401b0382111761120b57604052565b604051906120a682612041565b816101406000918281528260208201526040516120c28161205d565b838152606060208201526060604082015260408201528260608201528260808201528260a08201528260c08201528260e082015282610100820152826101208201520152565b91908110156121185760051b0190565b634e487b7160e01b600052603260045260246000fd5b90600182811c9216801561215e575b602083101461214857565b634e487b7160e01b600052602260045260246000fd5b91607f169161213d565b906040519182600082549261217c8461212e565b9081845260019485811690816000146121eb57506001146121a8575b50506121a692500383612078565b565b9093915060005260209081600020936000915b8183106121d35750506121a693508201013880612198565b855488840185015294850194879450918301916121bb565b9150506121a694506020925060ff191682840152151560051b8201013880612198565b600382101561043e5752565b1561222157565b60405162461bcd60e51b815260206004820152601860248201527f4572726f723a20496e76616c6964206f7065726174696f6e00000000000000006044820152606490fd5b60405163a9059cbb60e01b60208201526001600160a01b03909216602483015260448083019390935291815260808101916001600160401b0383118284101761120b576121a6926040525b60018060a01b0316906122fb600080836020829551910182875af13d1561235a573d906122dd82612362565b916122eb6040519384612078565b82523d84602084013e5b8461237d565b90815191821515928361232b575b5050506123135750565b60249060405190635274afe760e01b82526004820152fd5b8192935090602091810103126123565760200151908115918215036123535750388080612309565b80fd5b5080fd5b6060906122f5565b6001600160401b03811161120b57601f01601f191660200190565b906123a4575080511561239257805190602001fd5b604051630a12f52160e11b8152600490fd5b815115806123d7575b6123b5575090565b604051639996b31560e01b81526001600160a01b039091166004820152602490fd5b50803b156123ad565b156123e757565b60405162461bcd60e51b815260206004820152601360248201527222b93937b91d102bb937b7339037b83a34b7b760691b6044820152606490fd5b1561242957565b606460405162461bcd60e51b815260206004820152602060248201527f4572726f723a20496e73737566696369656e7420616d6f756e7420696e7075746044820152fd5b9190916001600160401b038080941691160191821161248857565b634e487b7160e01b600052601160045260246000fd5b9291926124aa82612362565b916124b86040519384612078565b82948184528183011161019a578281602093846000960137010152565b9080601f8301121561019a578160206124f09335910161249e565b90565b51600381101561043e5790565b90600381101561043e5760ff80198354169116179055565b9035601e198236030181121561019a5701602081359101916001600160401b03821161019a57813603831361019a57565b908060209392818452848401376000828201840152601f01601f1916010190565b6040516323b872dd60e01b60208201526001600160a01b03928316602482015292909116604483015260648083019390935291815260a08101918183106001600160401b0384111761120b576121a6926040526122b1565b156125c957565b60405162461bcd60e51b815260206004820152601860248201527f4572726f723a20456e747279206973206e6f74206f70656e00000000000000006044820152606490fd5b1561261557565b606460405162461bcd60e51b815260206004820152602060248201527f4572726f723a204d616b6520612070726564696374696f6e20696e73746561646044820152fd5b8015612488576000190190565b9190820391821161248857565b9190820180921161248857565b8181029291811591840414171561248857565b811561269d570490565b634e487b7160e01b600052601260045260246000fd5b6126d36126c2612710926126d7565b505060ff60045460801c1690612680565b0490565b90600091825260066020526040908183209282516126f481612041565b84546001600160a01b038116825260a01c60ff1615156020820152835161271a8161205d565b60ff60018701541660028110156128225781526127bf919061273e60028801612168565b602082015261274f60038801612168565b8682015285820152600486015460608201526005860154608082015261014060ff600a60068901549860a08501998a5260078101549860c08601998a5260088201546001600160401b039182821660e08901521c166101008601526009810154610120860152015416910161220e565b835183510193670de0b6b3a76400009081860291868304148615171561280e5751806127ff5750815b935190816127f557505090565b6124f09250612693565b6128099082612693565b6127e8565b634e487b7160e01b83526011600452602483fd5b634e487b7160e01b84526021600452602484fd5b6001600160a01b039081166000908152600560209081526040808320858452825280832081519196959490929061286c8361205d565b60ff9161287c838654168561220e565b8260026001870154968387019788520154161515898501528686526006815288862090838a51936128ac85612041565b8354908116855260a01c161515818401528951906128c98261205d565b846001840154166002811015612a4f5761296c93838793600a9361014096526128f460028401612168565b908201528d61290560038401612168565b908201528d87015260049c8d820154606088015260058201546080880152600682015460a0880152600782015460c088015260088201546001600160401b039182821660e08a01521c1661010087015260098101546101208701520154169201918261220e565b80516003811015612a3c5715908115612a1c575b50612a135761299590875460801c16946126d7565b92909150516003811015612a00576001146129f357506129b6915190612680565b612710928303918383116129e05750670de0b6b3a7640000939450906129db91612680565b040490565b634e487b7160e01b815260118652602490fd5b90506129b6915190612680565b634e487b7160e01b855260218852602485fd5b50919450505050565b9050516003811015612a00578251906003821015612a3c57141538612980565b634e487b7160e01b865260218952602486fd5b634e487b7160e01b89526021600452602489fd5b903590601e198136030182121561019a57018035906001600160401b03821161019a5760200191813603831361019a57565b9160009160006004546001600160401b0390604082612aba8184841c1682421661246d565b169383861694851015612c725760209889810190612ad88282612a63565b612af98d875183819483830196873781018883820152038084520182612078565b51902091848201928c612b2f612b0f8686612a63565b919092895183819483830196873781018a83820152038084520182612078565b5190201115612c5657612b54612b5f612b4b612b679385612a63565b92909585612a63565b9590925b369161249e565b93369161249e565b90356002811015612c5257918b612bc460216007948897968b995194859281612b99818601998a815193849201611e59565b8401612bad82518093858085019101611e59565b019160f81b90820152036001810184520182612078565b5190209a8b835252205416918383109485612c3a575b8515612c03575b5050508215612bf9575b5050612bf357565b60019150565b1490503880612beb565b92945084841092859284612c1f575b5050505091388080612be1565b8293945091612c2f92169061246d565b161182388080612c12565b94508381612c4a8185168661246d565b161194612bda565b8380fd5b91612c6a612b5f612b4b612b679385612a63565b959092612b58565b815162461bcd60e51b815260206004820152601c60248201527f4572726f723a20546f6f2066617220696e2074686520667574757265000000006044820152606490fd5b6001600160401b03918216908216039190821161248857565b919091612cdc8184612cb6565b92612cf26001600160401b039485429116612673565b9380821690421610612d1c57600191612d0a91612cb6565b1615612d165760029190565b60019190565b50506000919056fea2646970667358221220625ddea76b5b26a5795856c67c11a517436eb143b91638ba196049741fd331b064736f6c634300081400332f8788117e7eff1d82e926ec794901d17c78024a50270940304540a733656f0da49807205ce4d355092ef5a8a18f56e8913cf4a201fbe287825b095693c21775","linkReferences":{}},"methodIdentifiers":{"ADMIN_ROLE()":"75b238fc","DEFAULT_ADMIN_ROLE()":"a217fddf","battleIds()":"4b937f18","claimMarketMakerIncentives(uint256[])":"112c63be","claimWin(address,uint256[])":"30d36f4d","createBattle(address,(uint8,string,string),uint8,uint256,uint64)":"85e03f68","duration()":"0fb5a6b4","futureLimit()":"3e3e88f3","generateHash((uint8,string,string),uint64)":"925cc3d3","getBattle(uint256)":"6dd0ce7a","getMarketMakerIncentive(uint256)":"8fbdaa60","getPayout(address,uint256)":"565eea19","getPrizePoolAndOdds(uint256)":"b53c69bf","getRoleAdmin(bytes32)":"248a9ca3","getUserPrediction(address,uint256)":"a739657d","grantRole(bytes32,address)":"2f2ff15d","hasRole(bytes32,address)":"91d14854","makePrediction(address,uint256,uint8,uint256)":"c72d00dd","marketMakerIncentive()":"c7a74adf","minAmount()":"9b2cb5d8","renounceRole(bytes32,address)":"36568abe","resolveBattle(uint256)":"d93705a5","revokeRole(bytes32,address)":"d547741f","setDuration(uint64)":"4b852c03","setFutureLimit(uint64)":"0183cc38","setMarketMakerIncentive(uint8)":"8de36616","setMinAmount(uint256)":"897b0637","supportsInterface(bytes4)":"01ffc9a7","token()":"fc0c546a","updateAmount(address,uint256,uint256,bool)":"7e207230","updateOption(address,uint256)":"eb1c16be"},"id":36}