{"abi":[{"type":"constructor","inputs":[{"name":"_name","type":"string","internalType":"string"},{"name":"_symbol","type":"string","internalType":"string"},{"name":"_uri","type":"string","internalType":"string"},{"name":"_usdc","type":"address","internalType":"address"},{"name":"_controller","type":"address","internalType":"address"},{"name":"_admin","type":"address","internalType":"address"},{"name":"_battle","type":"address","internalType":"address"},{"name":"_minExpiry","type":"uint64","internalType":"uint64"}],"stateMutability":"nonpayable"},{"type":"function","name":"ADMIN_ROLE","inputs":[],"outputs":[{"name":"","type":"bytes32","internalType":"bytes32"}],"stateMutability":"view"},{"type":"function","name":"BATTLE_ROLE","inputs":[],"outputs":[{"name":"","type":"bytes32","internalType":"bytes32"}],"stateMutability":"view"},{"type":"function","name":"DEFAULT_ADMIN_ROLE","inputs":[],"outputs":[{"name":"","type":"bytes32","internalType":"bytes32"}],"stateMutability":"view"},{"type":"function","name":"balanceOf","inputs":[{"name":"account","type":"address","internalType":"address"},{"name":"id","type":"uint256","internalType":"uint256"}],"outputs":[{"name":"","type":"uint256","internalType":"uint256"}],"stateMutability":"view"},{"type":"function","name":"balanceOfBatch","inputs":[{"name":"accounts","type":"address[]","internalType":"address[]"},{"name":"ids","type":"uint256[]","internalType":"uint256[]"}],"outputs":[{"name":"","type":"uint256[]","internalType":"uint256[]"}],"stateMutability":"view"},{"type":"function","name":"burnTokens","inputs":[{"name":"ids","type":"uint256[]","internalType":"uint256[]"}],"outputs":[],"stateMutability":"nonpayable"},{"type":"function","name":"getRoleAdmin","inputs":[{"name":"role","type":"bytes32","internalType":"bytes32"}],"outputs":[{"name":"","type":"bytes32","internalType":"bytes32"}],"stateMutability":"view"},{"type":"function","name":"getRoleMember","inputs":[{"name":"role","type":"bytes32","internalType":"bytes32"},{"name":"index","type":"uint256","internalType":"uint256"}],"outputs":[{"name":"","type":"address","internalType":"address"}],"stateMutability":"view"},{"type":"function","name":"getRoleMemberCount","inputs":[{"name":"role","type":"bytes32","internalType":"bytes32"}],"outputs":[{"name":"","type":"uint256","internalType":"uint256"}],"stateMutability":"view"},{"type":"function","name":"grantRole","inputs":[{"name":"role","type":"bytes32","internalType":"bytes32"},{"name":"account","type":"address","internalType":"address"}],"outputs":[],"stateMutability":"nonpayable"},{"type":"function","name":"hasRole","inputs":[{"name":"role","type":"bytes32","internalType":"bytes32"},{"name":"account","type":"address","internalType":"address"}],"outputs":[{"name":"","type":"bool","internalType":"bool"}],"stateMutability":"view"},{"type":"function","name":"isApprovedForAll","inputs":[{"name":"account","type":"address","internalType":"address"},{"name":"operator","type":"address","internalType":"address"}],"outputs":[{"name":"","type":"bool","internalType":"bool"}],"stateMutability":"view"},{"type":"function","name":"minExpiry","inputs":[],"outputs":[{"name":"","type":"uint64","internalType":"uint64"}],"stateMutability":"view"},{"type":"function","name":"mintTickets","inputs":[{"name":"issuer","type":"address","internalType":"address"},{"name":"recipients","type":"address[]","internalType":"address[]"},{"name":"ticketPrices","type":"uint256[]","internalType":"uint256[]"},{"name":"ticketExpirations","type":"uint64[]","internalType":"uint64[]"}],"outputs":[{"name":"ids","type":"uint256[]","internalType":"uint256[]"}],"stateMutability":"nonpayable"},{"type":"function","name":"name","inputs":[],"outputs":[{"name":"","type":"string","internalType":"string"}],"stateMutability":"view"},{"type":"function","name":"renounceRole","inputs":[{"name":"role","type":"bytes32","internalType":"bytes32"},{"name":"callerConfirmation","type":"address","internalType":"address"}],"outputs":[],"stateMutability":"nonpayable"},{"type":"function","name":"revokeRole","inputs":[{"name":"role","type":"bytes32","internalType":"bytes32"},{"name":"account","type":"address","internalType":"address"}],"outputs":[],"stateMutability":"nonpayable"},{"type":"function","name":"safeBatchTransferFrom","inputs":[{"name":"","type":"address","internalType":"address"},{"name":"","type":"address","internalType":"address"},{"name":"","type":"uint256[]","internalType":"uint256[]"},{"name":"","type":"uint256[]","internalType":"uint256[]"},{"name":"","type":"bytes","internalType":"bytes"}],"outputs":[],"stateMutability":"pure"},{"type":"function","name":"safeTransferFrom","inputs":[{"name":"","type":"address","internalType":"address"},{"name":"","type":"address","internalType":"address"},{"name":"","type":"uint256","internalType":"uint256"},{"name":"","type":"uint256","internalType":"uint256"},{"name":"","type":"bytes","internalType":"bytes"}],"outputs":[],"stateMutability":"pure"},{"type":"function","name":"setApprovalForAll","inputs":[{"name":"operator","type":"address","internalType":"address"},{"name":"approved","type":"bool","internalType":"bool"}],"outputs":[],"stateMutability":"nonpayable"},{"type":"function","name":"supportsInterface","inputs":[{"name":"interfaceId","type":"bytes4","internalType":"bytes4"}],"outputs":[{"name":"","type":"bool","internalType":"bool"}],"stateMutability":"view"},{"type":"function","name":"symbol","inputs":[],"outputs":[{"name":"","type":"string","internalType":"string"}],"stateMutability":"view"},{"type":"function","name":"tickets","inputs":[{"name":"","type":"uint256","internalType":"uint256"}],"outputs":[{"name":"issuer","type":"address","internalType":"address"},{"name":"amountLocked","type":"uint256","internalType":"uint256"},{"name":"holder","type":"address","internalType":"address"},{"name":"expirationDate","type":"uint64","internalType":"uint64"}],"stateMutability":"view"},{"type":"function","name":"uri","inputs":[{"name":"","type":"uint256","internalType":"uint256"}],"outputs":[{"name":"","type":"string","internalType":"string"}],"stateMutability":"view"},{"type":"function","name":"usdc","inputs":[],"outputs":[{"name":"","type":"address","internalType":"contract IERC20"}],"stateMutability":"view"},{"type":"event","name":"ApprovalForAll","inputs":[{"name":"account","type":"address","indexed":true,"internalType":"address"},{"name":"operator","type":"address","indexed":true,"internalType":"address"},{"name":"approved","type":"bool","indexed":false,"internalType":"bool"}],"anonymous":false},{"type":"event","name":"RoleAdminChanged","inputs":[{"name":"role","type":"bytes32","indexed":true,"internalType":"bytes32"},{"name":"previousAdminRole","type":"bytes32","indexed":true,"internalType":"bytes32"},{"name":"newAdminRole","type":"bytes32","indexed":true,"internalType":"bytes32"}],"anonymous":false},{"type":"event","name":"RoleGranted","inputs":[{"name":"role","type":"bytes32","indexed":true,"internalType":"bytes32"},{"name":"account","type":"address","indexed":true,"internalType":"address"},{"name":"sender","type":"address","indexed":true,"internalType":"address"}],"anonymous":false},{"type":"event","name":"RoleRevoked","inputs":[{"name":"role","type":"bytes32","indexed":true,"internalType":"bytes32"},{"name":"account","type":"address","indexed":true,"internalType":"address"},{"name":"sender","type":"address","indexed":true,"internalType":"address"}],"anonymous":false},{"type":"event","name":"TicketClosed","inputs":[{"name":"id","type":"uint256","indexed":true,"internalType":"uint256"},{"name":"holder","type":"address","indexed":true,"internalType":"address"},{"name":"ticketPrice","type":"uint256","indexed":false,"internalType":"uint256"},{"name":"isUsed","type":"bool","indexed":true,"internalType":"bool"}],"anonymous":false},{"type":"event","name":"TicketMinted","inputs":[{"name":"id","type":"uint256","indexed":true,"internalType":"uint256"},{"name":"issuer","type":"address","indexed":true,"internalType":"address"},{"name":"holder","type":"address","indexed":true,"internalType":"address"},{"name":"ticketPrice","type":"uint256","indexed":false,"internalType":"uint256"},{"name":"expirationDate","type":"uint64","indexed":false,"internalType":"uint64"}],"anonymous":false},{"type":"event","name":"TransferBatch","inputs":[{"name":"operator","type":"address","indexed":true,"internalType":"address"},{"name":"from","type":"address","indexed":true,"internalType":"address"},{"name":"to","type":"address","indexed":true,"internalType":"address"},{"name":"ids","type":"uint256[]","indexed":false,"internalType":"uint256[]"},{"name":"values","type":"uint256[]","indexed":false,"internalType":"uint256[]"}],"anonymous":false},{"type":"event","name":"TransferSingle","inputs":[{"name":"operator","type":"address","indexed":true,"internalType":"address"},{"name":"from","type":"address","indexed":true,"internalType":"address"},{"name":"to","type":"address","indexed":true,"internalType":"address"},{"name":"id","type":"uint256","indexed":false,"internalType":"uint256"},{"name":"value","type":"uint256","indexed":false,"internalType":"uint256"}],"anonymous":false},{"type":"event","name":"URI","inputs":[{"name":"value","type":"string","indexed":false,"internalType":"string"},{"name":"id","type":"uint256","indexed":true,"internalType":"uint256"}],"anonymous":false},{"type":"error","name":"AccessControlBadConfirmation","inputs":[]},{"type":"error","name":"AccessControlUnauthorizedAccount","inputs":[{"name":"account","type":"address","internalType":"address"},{"name":"neededRole","type":"bytes32","internalType":"bytes32"}]},{"type":"error","name":"AddressEmptyCode","inputs":[{"name":"target","type":"address","internalType":"address"}]},{"type":"error","name":"AddressInsufficientBalance","inputs":[{"name":"account","type":"address","internalType":"address"}]},{"type":"error","name":"ERC1155InsufficientBalance","inputs":[{"name":"sender","type":"address","internalType":"address"},{"name":"balance","type":"uint256","internalType":"uint256"},{"name":"needed","type":"uint256","internalType":"uint256"},{"name":"tokenId","type":"uint256","internalType":"uint256"}]},{"type":"error","name":"ERC1155InvalidApprover","inputs":[{"name":"approver","type":"address","internalType":"address"}]},{"type":"error","name":"ERC1155InvalidArrayLength","inputs":[{"name":"idsLength","type":"uint256","internalType":"uint256"},{"name":"valuesLength","type":"uint256","internalType":"uint256"}]},{"type":"error","name":"ERC1155InvalidOperator","inputs":[{"name":"operator","type":"address","internalType":"address"}]},{"type":"error","name":"ERC1155InvalidReceiver","inputs":[{"name":"receiver","type":"address","internalType":"address"}]},{"type":"error","name":"ERC1155InvalidSender","inputs":[{"name":"sender","type":"address","internalType":"address"}]},{"type":"error","name":"ERC1155MissingApprovalForAll","inputs":[{"name":"operator","type":"address","internalType":"address"},{"name":"owner","type":"address","internalType":"address"}]},{"type":"error","name":"FailedInnerCall","inputs":[]},{"type":"error","name":"ReentrancyGuardReentrantCall","inputs":[]},{"type":"error","name":"SafeERC20FailedOperation","inputs":[{"name":"token","type":"address","internalType":"address"}]}],"bytecode":{"object":"0x60a060405234620007625762002c6c803803806200001d8162000767565b92833981019061010081830312620007625780516001600160401b0381116200076257826200004e9183016200078d565b60208201516001600160401b038111620007625783620000709184016200078d565b604083015190936001600160401b0382116200076257620000939184016200078d565b92620000a260608401620007ff565b93620000b160808501620007ff565b91620000c060a08601620007ff565b9360e0620000d160c08801620007ff565b960151926001600160401b038416840362000762578051906001600160401b0382116200053b5760045490600182811c9216801562000757575b60208310146200051a5781601f849311620006e5575b50602090601f831160011462000656576000926200064a575b50508160011b916000199060031b1c1916176004555b60016005558051906001600160401b0382116200053b5760065490600182811c921680156200063f575b60208310146200051a5781601f849311620005db575b50602090601f83116001146200055d5760009262000551575b50508160011b916000199060031b1c1916176006555b8051906001600160401b0382116200053b5760075490600182811c9216801562000530575b60208310146200051a5781601f849311620004b6575b50602090601f83116001146200043c5760009262000430575b50508160011b916000199060031b1c1916176007555b6001600160a01b03948516608052600980546001600160401b0319166001600160401b0392909216919091179055620002628162000814565b620003f1575b50620002748162000894565b620003a3575b50620002868162000925565b62000355575b600080805260208190527fad3228b676f7d3cd4284a5443f17f1962b36e491b30a40b2405849e597ba5fb68054908290557fbd79b86ffe0ab8e8776151514217cd7cacd52c909f66475c3af44e129f0b00ff90829081838180a48160008051602062002c4c83398151915280825260016040832001908282549255838380a460008051602062002c0c833981519152808352600160408420019183835493558380a460405161218d908162000a3f82396080518181816107f701528181610a1401526115a10152f35b60008051602062002c0c83398151915260005260016020526200039a91167fc2451348de83df6b9060a4ca0055c28fe271e327f34bbf5fa39ac0283bd332a1620009b1565b5038806200028c565b60008051602062002c4c8339815191526000526001602052620003e99083167f50efbde2d46c37e9785f1791697f77e94bb7b701e19f1930a668820722d37694620009b1565b50386200027a565b600080526001602052620004289084167fa6eef7e35abe7026729641147f7915573c7e97b47efa546f5f6e3230263bcb49620009b1565b503862000268565b01519050388062000213565b6007600090815260008051602062002bec8339815191529350601f198516905b8181106200049d575090846001959493921062000483575b505050811b0160075562000229565b015160001960f88460031b161c1916905538808062000474565b929360206001819287860151815501950193016200045c565b600760005290915060008051602062002bec833981519152601f840160051c810191602085106200050f575b90601f859493920160051c01905b818110620004ff5750620001fa565b60008155849350600101620004f0565b9091508190620004e2565b634e487b7160e01b600052602260045260246000fd5b91607f1691620001e4565b634e487b7160e01b600052604160045260246000fd5b015190503880620001a9565b60066000908152935060008051602062002c2c83398151915291905b601f1984168510620005bf576001945083601f19811610620005a5575b505050811b01600655620001bf565b015160001960f88460031b161c1916905538808062000596565b8181015183556020948501946001909301929091019062000579565b600660005290915060008051602062002c2c833981519152601f840160051c8101916020851062000634575b90601f859493920160051c01905b81811062000624575062000190565b6000815584935060010162000615565b909150819062000607565b91607f16916200017a565b0151905038806200013a565b6004600090815293507f8a35acfbc15ff81a39ae7d344fd709f28e8600b4aa8c65c6b64bfe7fe36bd19b91905b601f1984168510620006c9576001945083601f19811610620006af575b505050811b0160045562000150565b015160001960f88460031b161c19169055388080620006a0565b8181015183556020948501946001909301929091019062000683565b60046000529091507f8a35acfbc15ff81a39ae7d344fd709f28e8600b4aa8c65c6b64bfe7fe36bd19b601f840160051c8101602085106200074f575b90849392915b601f830160051c820181106200073f57505062000121565b6000815585945060010162000727565b508062000721565b91607f16916200010b565b600080fd5b6040519190601f01601f191682016001600160401b038111838210176200053b57604052565b919080601f84011215620007625782516001600160401b0381116200053b57602090620007c3601f8201601f1916830162000767565b92818452828287010111620007625760005b818110620007eb57508260009394955001015290565b8581018301518482018401528201620007d5565b51906001600160a01b03821682036200076257565b6001600160a01b031660008181527fad3228b676f7d3cd4284a5443f17f1962b36e491b30a40b2405849e597ba5fb5602052604081205490919060ff166200089057818052816020526040822081835260205260408220600160ff19825416179055339160008051602062002bcc8339815191528180a4600190565b5090565b6001600160a01b031660008181527f7d7ffb7a348e1c6a02869081a26547b49160dd3df72d1d75a570eb9b698292ec602052604081205490919060008051602062002c4c8339815191529060ff166200092057808352826020526040832082845260205260408320600160ff1982541617905560008051602062002bcc833981519152339380a4600190565b505090565b6001600160a01b031660008181527fb4b8413966166c3b3207c3e607f3d7b9119f4997a5e6005eaa78a22ce39ee5c2602052604081205490919060008051602062002c0c8339815191529060ff166200092057808352826020526040832082845260205260408320600160ff1982541617905560008051602062002bcc833981519152339380a4600190565b9190600183016000908282528060205260408220541560001462000a38578454946801000000000000000086101562000a24576001860180825586101562000a1057836040949596828552602085200155549382526020522055600190565b634e487b7160e01b83526032600452602483fd5b634e487b7160e01b83526041600452602483fd5b5092505056fe6080604052600436101561001257600080fd5b60003560e01c8062fdd58e146101a657806301ffc9a7146101a157806306fdde031461019c5780630e89341c14610197578063248a9ca3146101925780632eb2c2d61461018d5780632f2ff15d1461018857806336568abe146101835780633e413bee1461017e5780634e1273f41461017957806350b447121461017457806367a531731461016f57806371522f601461016a57806375b238fc146101655780639010d07c1461016057806391d148541461015b57806395d89b4114610156578063a217fddf14610151578063a22cb4651461014c578063ca15c87314610147578063d547741f14610142578063e6fb6a2e1461013d578063e985e9c514610138578063f17aea89146101335763f242432a1461012e57600080fd5b611042565b611007565b610fab565b610f84565b610f42565b610f16565b610e62565b610e3c565b610d79565b610d23565b610cdc565b610ca1565b610c23565b6109b6565b610926565b61086b565b6107e1565b610794565b610722565b6106a3565b61058e565b610498565b61038c565b610224565b6101c1565b6001600160a01b038116036101bc57565b600080fd5b346101bc5760403660031901126101bc5760206102096004356101e3816101ab565b6024356000526002835260406000209060018060a01b0316600052602052604060002090565b54604051908152f35b6001600160e01b03198116036101bc57565b346101bc5760203660031901126101bc57602060043561024381610212565b63ffffffff60e01b16636cdb3d1360e11b81149081156102b5575b8115610270575b506040519015158152f35b635a05180f60e01b81149150811561028a575b5038610265565b637965db0b60e01b8114915081156102a4575b5038610283565b6301ffc9a760e01b1490503861029d565b6303a24d0760e21b8114915061025e565b634e487b7160e01b600052604160045260246000fd5b608081019081106001600160401b038211176102f757604052565b6102c6565b602081019081106001600160401b038211176102f757604052565b90601f801991011681019081106001600160401b038211176102f757604052565b919082519283825260005b848110610364575050826000602080949584010152601f8019910116010190565b602081830181015184830182015201610343565b906020610389928181520190610338565b90565b346101bc576000806003193601126104955760405190806006549060019180831c9280821692831561048b575b602092838610851461047757858852602088019490811561045657506001146103fd575b6103f9876103ed81890382610317565b60405191829182610378565b0390f35b600660005294509192917ff652222313e28459528d920b65115c16c04f3efc82aaedc97be59f3f377c0d3f5b83861061044557505050910190506103ed826103f938806103dd565b805485870152948201948101610429565b60ff191685525050505090151560051b0190506103ed826103f938806103dd565b634e487b7160e01b82526022600452602482fd5b93607f16936103b9565b80fd5b346101bc576020806003193601126101bc576040519060009060045460019181831c92808316928315610584575b828510841461057057848752602087019390811561055157506001146104f7575b6103f9866103ed81880382610317565b6004600090815294509192917f8a35acfbc15ff81a39ae7d344fd709f28e8600b4aa8c65c6b64bfe7fe36bd19b5b83861061054057505050910190506103ed826103f9386104e7565b805485870152948201948101610525565b60ff1916845250505090151560051b0190506103ed826103f9386104e7565b634e487b7160e01b86526022600452602486fd5b93607f16936104c6565b346101bc5760203660031901126101bc5760043560005260006020526020600160406000200154604051908152f35b604051906105ca826102dc565b565b6001600160401b0381116102f75760051b60200190565b81601f820112156101bc578035916105fa836105cc565b926106086040519485610317565b808452602092838086019260051b8201019283116101bc578301905b828210610632575050505090565b81358152908301908301610624565b6001600160401b0381116102f757601f01601f191660200190565b81601f820112156101bc5780359061067382610641565b926106816040519485610317565b828452602083830101116101bc57816000926020809301838601378301015290565b346101bc5760a03660031901126101bc576106bf6004356101ab565b6106ca6024356101ab565b6001600160401b036044358181116101bc576106ea9036906004016105e3565b506064358181116101bc576107039036906004016105e3565b506084359081116101bc5761071c90369060040161065c565b50612118565b346101bc5760403660031901126101bc57602435600435610742826101ab565b6000918183528260205261075c60016040852001546110c8565b6107668183611109565b61076e578280f35b90825260016020526040822061078d916001600160a01b0316906113d7565b5038808280f35b346101bc5760403660031901126101bc576024356107b1816101ab565b336001600160a01b038216036107cf576107cd9060043561119a565b005b60405163334bd91960e11b8152600490fd5b346101bc5760003660031901126101bc576040517f00000000000000000000000000000000000000000000000000000000000000006001600160a01b03168152602090f35b90815180825260208080930193019160005b828110610846575050505090565b835185529381019392810192600101610838565b906020610389928181520190610826565b346101bc5760403660031901126101bc576004356001600160401b038082116101bc57366023830112156101bc5781600401356108a7816105cc565b926108b56040519485610317565b81845260209160248386019160051b830101913683116101bc57602401905b82821061090d57856024358681116101bc576103f9916108fb6109019236906004016105e3565b906112f6565b6040519182918261085a565b838091833561091b816101ab565b8152019101906108d4565b346101bc5760203660031901126101bc57600435600052600a602052608060406000206001600160401b0360018060a01b03918281541692600260018301549201549160405194855260208501528116604084015260a01c166060820152f35b9181601f840112156101bc578235916001600160401b0383116101bc576020808501948460051b0101116101bc57565b346101bc576020806003193601126101bc576001600160401b036004358181116101bc576109e983913690600401610986565b9290916109f4611e0d565b6000936109ff611e30565b5084924216925b818110610a4257610a3886337f00000000000000000000000000000000000000000000000000000000000000006120da565b6107cd6001600555565b610a4d818387611802565b3590610a6382600052600a602052604060002090565b610a6c90611e55565b9684880180511515610a7d90611e9f565b83896060810151610a94906001600160401b031690565b6001600160401b0316891060001495610b966040610b87610bbd97610bab97610b9b9660019c610bc3577f3b41352979f531f5b8031853cf85802ce7e7f7961e3a1e4965cb157318c1cf5060009081526020528c90610b38610b33610b2c337fb4b8413966166c3b3207c3e607f3d7b9119f4997a5e6005eaa78a22ce39ee5c25b9060018060a01b0316600052602052604060002090565b5460ff1690565b611edf565b8501518251865190815260a083901b8390039091166001600160a01b03169088907f9d9fb3cc80999fbd767dc898a9a4e28b2c904a2d47b820e2192e280bd44f67d590602090a45b5190611924565b9d01516001600160a01b031690565b611f21565b600052600a602052604060002090565b60026000918281558260018201550155565b01610a06565b80516000919088907f9d9fb3cc80999fbd767dc898a9a4e28b2c904a2d47b820e2192e280bd44f67d5906001600160a01b0390610c039082163314611edf565b928801518551895190815293166001600160a01b031692602090a4610b80565b346101bc5760803660031901126101bc57600435610c40816101ab565b6001600160401b036024358181116101bc57610c60903690600401610986565b926044358381116101bc57610c79903690600401610986565b906064359485116101bc576103f995610c99610901963690600401610986565b959094611542565b346101bc5760003660031901126101bc5760206040517fa49807205ce4d355092ef5a8a18f56e8913cf4a201fbe287825b095693c217758152f35b346101bc5760403660031901126101bc5760043560005260016020526020610d0a60243560406000206113a1565b905460405160039290921b1c6001600160a01b03168152f35b346101bc5760403660031901126101bc57602060ff610d6d602435610d47816101ab565b6004356000526000845260406000209060018060a01b0316600052602052604060002090565b54166040519015158152f35b346101bc576000806003193601126104955760405190806007549060019180831c92808216928315610e32575b60209283861085146104775785885260208801949081156104565750600114610dd9576103f9876103ed81890382610317565b600760005294509192917fa66cc928b5edb82af9bd49922954155ab7b0942694bea4ce44661d9a8736c6885b838610610e2157505050910190506103ed826103f938806103dd565b805485870152948201948101610e05565b93607f1693610da6565b346101bc5760003660031901126101bc57602060405160008152f35b801515036101bc57565b346101bc5760403660031901126101bc57600435610e7f816101ab565b602435610e8b81610e58565b6001600160a01b038216918215610efe573360009081526003602090815260408083206001600160a01b039094168352929052209015159060ff1981541660ff83161790556040519081527f17307eab39ab6107e8899845ad3d59bd9653f200f220920489ca2b5937696c3160203392a3005b60405162ced3e160e81b815260006004820152602490fd5b346101bc5760203660031901126101bc5760043560005260016020526020604060002054604051908152f35b346101bc5760403660031901126101bc576107cd602435600435610f65826101ab565b806000526000602052610f7f6001604060002001546110c8565b61119a565b346101bc5760003660031901126101bc5760206001600160401b0360095416604051908152f35b346101bc5760403660031901126101bc57602060ff610d6d600435610fcf816101ab565b60243590610fdc826101ab565b60018060a01b03166000526003845260406000209060018060a01b0316600052602052604060002090565b346101bc5760003660031901126101bc5760206040517f3b41352979f531f5b8031853cf85802ce7e7f7961e3a1e4965cb157318c1cf508152f35b346101bc5760a03660031901126101bc5761105e6004356101ab565b6110696024356101ab565b6084356001600160401b0381116101bc5761108890369060040161065c565b5060405162461bcd60e51b81526020600482015260176024820152762737b716ba3930b739b332b93930b13632903a37b5b2b760491b6044820152606490fd5b60008181526020818152604080832033845290915290205460ff16156110eb5750565b6044906040519063e2517d3f60e01b82523360048301526024820152fd5b6000818152602081815260408083206001600160a01b038616845290915281205490919060ff1661119457808252602082815260408084206001600160a01b038616600090815292529020805460ff1916600117905533926001600160a01b0316917f2f8788117e7eff1d82e926ec794901d17c78024a50270940304540a733656f0d9080a4600190565b50905090565b6111a482826111d5565b91826111af57505090565b6000918252600160205260409091206111d1916001600160a01b03169061148d565b5090565b6000818152602081815260408083206001600160a01b038616845290915281205490919060ff161561119457808252602082815260408084206001600160a01b038616600090815292529020805460ff1916905533926001600160a01b0316917ff6391f5c32d9c69d2a47ea670b442974b53935d1edc7fd64eb21e047a839171b9080a4600190565b61128691600052600260205260406000209060018060a01b0316600052602052604060002090565b5490565b634e487b7160e01b600052601160045260246000fd5b60001981146112af5760010190565b61128a565b634e487b7160e01b600052603260045260246000fd5b6060518110156112dd5760051b60800190565b6112b4565b80518210156112dd5760209160051b010190565b9190918051835180820361137f575050805190611312826105cc565b916113206040519384610317565b80835261132f601f19916105cc565b0190602091368385013760005b815181101561137757806113626113729260051b85808287010151918a0101519061125e565b61136c82876112e2565b526112a0565b61133c565b509193505050565b604051635b05999160e01b815260048101919091526024810191909152604490fd5b80548210156112dd5760005260206000200190600090565b916113d39183549060031b91821b91600019901b19161790565b9055565b6001810190826000528160205260406000205415600014611445578054680100000000000000008110156102f7576114306114198260018794018555846113a1565b819391549060031b91821b91600019901b19161790565b90555491600052602052604060002055600190565b505050600090565b8054908115611477576000199182019161146783836113a1565b909182549160031b1b1916905555565b634e487b7160e01b600052603160045260246000fd5b60018101918060005282602052604060002054928315156000146115395760001992848401908582116112af5780549485019485116112af5760009585836114f0976114e195036114f6575b50505061144d565b90600052602052604060002090565b55600190565b61152061151a9161150a61153094876113a1565b90549060031b1c928391876113a1565b906113b9565b8590600052602052604060002090565b553880806114d9565b50505050600090565b9391909261154e611e0d565b828214806117b6575b6115689097969794939291946117bf565b600854966000966115816009546001600160401b031690565b9188965b8488106115d75750505050505050506115ca92916115c59130907f0000000000000000000000000000000000000000000000000000000000000000611cdb565b600855565b6060906105ca6001600555565b90919293949596996115e8906112a0565b998a6115f3826112ca565b52886115fe826112ca565b5161160a83898c611802565b61161390611812565b906116286001600160a01b038316151561181c565b611633848b87611802565b35809d81151561164290611868565b61164d868a8a611802565b611656906118b4565b9e8f6001600160401b038c16906001600160401b03161015611677906118c8565b61168091611924565b9d611689611931565b61169490848661195f565b6116a7906001600160401b034216611944565b926116b06105bd565b6001600160a01b0386168152602081018390526001600160a01b038216604080830191909152906001600160401b03861660608201526116fa85600052600a602052604060002090565b815181546001600160a01b0319166001600160a01b0391821617825560208301516001830155604083015160029092018054606090940151929091166001600160e01b03199093169290921760a09190911b67ffffffffffffffff60a01b16179055519182526001600160401b039390931660208201526001600160a01b0392831693909216917f7f75141ce11311992465379c1256237db165b60ddf7ba642497d571de6c0ecef90604090a460010196959493929190611585565b50818714611557565b156117c657565b60405162461bcd60e51b81526020600482015260146024820152730aadccae2eac2d840c2e4e4c2f240d8cadccee8d60631b6044820152606490fd5b91908110156112dd5760051b0190565b35610389816101ab565b1561182357565b60405162461bcd60e51b815260206004820152601a60248201527f4e756c6c206164647265737320666f7220726563697069656e740000000000006044820152606490fd5b1561186f57565b60405162461bcd60e51b815260206004820152601a60248201527f4e756c6c2076616c756520666f72207469636b657450726963650000000000006044820152606490fd5b356001600160401b03811681036101bc5790565b156118cf57565b60405162461bcd60e51b815260206004820152602760248201527f4d696e2065787069727920666f72207469636b657445787069726174696f6e206044820152661b9bdd081b595d60ca1b6064820152608490fd5b919082018092116112af57565b6040519061193e826102fc565b60008252565b9190916001600160401b03808094169116019182116112af57565b6001600160a01b03811692918315611aac5761199a604051916001835260208301526040820190600182526001606084015260808301604052565b92815184519081810361137f57505060005b82518110156119f957806119f49160051b6119ed6119e587610b15602080868b010151958c010151946000526002602052604060002090565b918254611924565b90556112a0565b6119ac565b509291936001825114600014611a705760208281015184820151604080519283529282015260009133917fc3d58168c5ae7397731d063d5bbf3d657854427343f4c083240f7aacaa2d0f629190a45b8051600103611a6657906020806105ca959301519101519133611b60565b6105ca9333611ca6565b60006040517f4a39dc06d4c0dbc64b70af90fd698a233a518aa5d07e595d983b8c0526c8f7fb339180611aa4888883611ac5565b0390a4611a48565b604051632bfa23e760e11b815260006004820152602490fd5b9091611adc61038993604084526040840190610826565b916020818403910152610826565b908160209103126101bc575161038981610212565b909260a0926103899594600180861b0316835260006020840152604083015260608201528160808201520190610338565b3d15611b5b573d90611b4182610641565b91611b4f6040519384610317565b82523d6000602084013e565b606090565b9293919093843b611b73575b5050505050565b602091611b96604051948593849363f23a6e6160e01b9889865260048601611aff565b038160006001600160a01b0388165af160009181611c2b575b50611bee5782611bbd611b30565b8051919082611be757604051632bfa23e760e11b81526001600160a01b0383166004820152602490fd5b9050602001fd5b6001600160e01b03191603611c0857503880808080611b6c565b604051632bfa23e760e11b81526001600160a01b03919091166004820152602490fd5b611c4d91925060203d8111611c54575b611c458183610317565b810190611aea565b9038611baf565b503d611c3b565b92611c8a6103899593611c989360018060a01b031686526000602087015260a0604087015260a0860190610826565b908482036060860152610826565b916080818403910152610338565b9293919093843b611cb8575050505050565b602091611b96604051948593849363bc197c8160e01b9889865260048601611c5b565b6040516323b872dd60e01b60208201526001600160a01b03928316602482015292909116604483015260648083019390935291815260a08101918183106001600160401b038411176102f7576105ca926040525b600080611d589260018060a01b03169360208151910182865af1611d51611b30565b9083611daa565b8051908115159182611d86575b5050611d6e5750565b60249060405190635274afe760e01b82526004820152fd5b81925090602091810103126101bc5760200151611da281610e58565b153880611d65565b90611dd15750805115611dbf57805190602001fd5b604051630a12f52160e11b8152600490fd5b81511580611e04575b611de2575090565b604051639996b31560e01b81526001600160a01b039091166004820152602490fd5b50803b15611dda565b600260055414611e1e576002600555565b604051633ee5aeb560e01b8152600490fd5b60405190611e3d826102dc565b60006060838281528260208201528260408201520152565b90604051611e62816102dc565b82546001600160a01b03908116825260018401546020830152600290930154928316604082015260a09290921c6001600160401b03166060830152565b15611ea657565b60405162461bcd60e51b81526020600482015260116024820152702737b732bc34b9ba32b73a103a37b5b2b760791b6044820152606490fd5b15611ee657565b60405162461bcd60e51b81526020600482015260136024820152722aa720aaaa2427a924ad22a22fa1a0a62622a960691b6044820152606490fd5b6001600160a01b0381169182156120c257611f5b604051916001835260208301526040820190600182526001606084015260808301604052565b919060409460008651611f6d816102fc565b5281518451908181036120a157505060005b825181101561201a578060051b60208082860101519187010151611fb186610b15846000526002602052604060002090565b54818110611fe45786610b15611fdf959493611fd99303936000526002602052604060002090565b556112a0565b611f7f565b89516303dee4c560e01b81526001600160a01b038816600482015260248101919091526044810182905260648101839052608490fd5b5094906000949392506001815114851461206f5760209081015192810151915192835282015233907fc3d58168c5ae7397731d063d5bbf3d657854427343f4c083240f7aacaa2d0f629080604081015b0390a4565b905133927f4a39dc06d4c0dbc64b70af90fd698a233a518aa5d07e595d983b8c0526c8f7fb92829161206a9183611ac5565b8751635b05999160e01b815260048101919091526024810191909152604490fd5b604051626a0d4560e21b815260006004820152602490fd5b60405163a9059cbb60e01b60208201526001600160a01b0390921660248301526044808301939093529181526105ca91612113826102dc565b611d2f565b60405162461bcd60e51b81526020600482015260176024820152762737b716ba3930b739b332b93930b13632903a37b5b2b760491b6044820152606490fdfea2646970667358221220bb424ddab200941e7503f3bbb3e4a6ccff72ca3df1038968cbc2e498e8276a9964736f6c634300081400332f8788117e7eff1d82e926ec794901d17c78024a50270940304540a733656f0da66cc928b5edb82af9bd49922954155ab7b0942694bea4ce44661d9a8736c6883b41352979f531f5b8031853cf85802ce7e7f7961e3a1e4965cb157318c1cf50f652222313e28459528d920b65115c16c04f3efc82aaedc97be59f3f377c0d3fa49807205ce4d355092ef5a8a18f56e8913cf4a201fbe287825b095693c21775","linkReferences":{}},"methodIdentifiers":{"ADMIN_ROLE()":"75b238fc","BATTLE_ROLE()":"f17aea89","DEFAULT_ADMIN_ROLE()":"a217fddf","balanceOf(address,uint256)":"00fdd58e","balanceOfBatch(address[],uint256[])":"4e1273f4","burnTokens(uint256[])":"67a53173","getRoleAdmin(bytes32)":"248a9ca3","getRoleMember(bytes32,uint256)":"9010d07c","getRoleMemberCount(bytes32)":"ca15c873","grantRole(bytes32,address)":"2f2ff15d","hasRole(bytes32,address)":"91d14854","isApprovedForAll(address,address)":"e985e9c5","minExpiry()":"e6fb6a2e","mintTickets(address,address[],uint256[],uint64[])":"71522f60","name()":"06fdde03","renounceRole(bytes32,address)":"36568abe","revokeRole(bytes32,address)":"d547741f","safeBatchTransferFrom(address,address,uint256[],uint256[],bytes)":"2eb2c2d6","safeTransferFrom(address,address,uint256,uint256,bytes)":"f242432a","setApprovalForAll(address,bool)":"a22cb465","supportsInterface(bytes4)":"01ffc9a7","symbol()":"95d89b41","tickets(uint256)":"50b44712","uri(uint256)":"0e89341c","usdc()":"3e413bee"},"id":22}