{"abi":[{"type":"constructor","inputs":[{"name":"initialOwner","type":"address","internalType":"address"},{"name":"_token","type":"address","internalType":"address"},{"name":"_minAmount","type":"uint256","internalType":"uint256"}],"stateMutability":"nonpayable"},{"type":"function","name":"DURATION","inputs":[],"outputs":[{"name":"","type":"uint64","internalType":"uint64"}],"stateMutability":"view"},{"type":"function","name":"FUTURE_LIMIT","inputs":[],"outputs":[{"name":"","type":"uint64","internalType":"uint64"}],"stateMutability":"view"},{"type":"function","name":"MARKET_MAKER_INCENTIVE","inputs":[],"outputs":[{"name":"","type":"uint8","internalType":"uint8"}],"stateMutability":"view"},{"type":"function","name":"battleIds","inputs":[],"outputs":[{"name":"","type":"uint256","internalType":"uint256"}],"stateMutability":"view"},{"type":"function","name":"claimMarketMakerIncentives","inputs":[{"name":"battleIds_","type":"uint256[]","internalType":"uint256[]"}],"outputs":[],"stateMutability":"nonpayable"},{"type":"function","name":"claimWin","inputs":[{"name":"who","type":"address","internalType":"address"},{"name":"battleIds_","type":"uint256[]","internalType":"uint256[]"}],"outputs":[],"stateMutability":"nonpayable"},{"type":"function","name":"createBattle","inputs":[{"name":"creator","type":"address","internalType":"address"},{"name":"manifest","type":"tuple","internalType":"struct BattleManifest","components":[{"name":"battleType","type":"uint8","internalType":"enum BattleType"},{"name":"option0Id","type":"string","internalType":"string"},{"name":"option1Id","type":"string","internalType":"string"}]},{"name":"option","type":"uint8","internalType":"enum BattleOption"},{"name":"amount","type":"uint256","internalType":"uint256"},{"name":"secondsBeforeStart","type":"uint64","internalType":"uint64"}],"outputs":[],"stateMutability":"nonpayable"},{"type":"function","name":"generateHash","inputs":[{"name":"manifest","type":"tuple","internalType":"struct BattleManifest","components":[{"name":"battleType","type":"uint8","internalType":"enum BattleType"},{"name":"option0Id","type":"string","internalType":"string"},{"name":"option1Id","type":"string","internalType":"string"}]},{"name":"startTimestamp","type":"uint64","internalType":"uint64"}],"outputs":[{"name":"hash","type":"bytes32","internalType":"bytes32"},{"name":"isActive","type":"bool","internalType":"bool"}],"stateMutability":"view"},{"type":"function","name":"getBattle","inputs":[{"name":"battleId","type":"uint256","internalType":"uint256"}],"outputs":[{"name":"","type":"tuple","internalType":"struct BattleData","components":[{"name":"creator","type":"address","internalType":"address"},{"name":"hasClaimedIncentive","type":"bool","internalType":"bool"},{"name":"manifest","type":"tuple","internalType":"struct BattleManifest","components":[{"name":"battleType","type":"uint8","internalType":"enum BattleType"},{"name":"option0Id","type":"string","internalType":"string"},{"name":"option1Id","type":"string","internalType":"string"}]},{"name":"option0Count","type":"uint256","internalType":"uint256"},{"name":"option1Count","type":"uint256","internalType":"uint256"},{"name":"option0PrizePool","type":"uint256","internalType":"uint256"},{"name":"option1PrizePool","type":"uint256","internalType":"uint256"},{"name":"startTimestamp","type":"uint64","internalType":"uint64"},{"name":"closeTimestamp","type":"uint64","internalType":"uint64"},{"name":"aPIRequestId","type":"uint256","internalType":"uint256"},{"name":"winOption","type":"uint8","internalType":"enum BattleOption"}]}],"stateMutability":"view"},{"type":"function","name":"getMarketMakerIncentive","inputs":[{"name":"battleId","type":"uint256","internalType":"uint256"}],"outputs":[{"name":"","type":"uint256","internalType":"uint256"}],"stateMutability":"view"},{"type":"function","name":"getPayout","inputs":[{"name":"who","type":"address","internalType":"address"},{"name":"battleId","type":"uint256","internalType":"uint256"}],"outputs":[{"name":"","type":"uint256","internalType":"uint256"}],"stateMutability":"view"},{"type":"function","name":"getPredictionByBattleId","inputs":[{"name":"user","type":"address","internalType":"address"},{"name":"battleId","type":"uint256","internalType":"uint256"}],"outputs":[{"name":"","type":"tuple","internalType":"struct UserPrediction","components":[{"name":"option","type":"uint8","internalType":"enum BattleOption"},{"name":"amount","type":"uint256","internalType":"uint256"},{"name":"isClosed","type":"bool","internalType":"bool"}]}],"stateMutability":"view"},{"type":"function","name":"getPrizePoolAndOdds","inputs":[{"name":"battleId","type":"uint256","internalType":"uint256"}],"outputs":[{"name":"prizePool","type":"uint256","internalType":"uint256"},{"name":"option0Odd","type":"uint256","internalType":"uint256"},{"name":"option1Odd","type":"uint256","internalType":"uint256"}],"stateMutability":"view"},{"type":"function","name":"makePrediction","inputs":[{"name":"who","type":"address","internalType":"address"},{"name":"battleId","type":"uint256","internalType":"uint256"},{"name":"option","type":"uint8","internalType":"enum BattleOption"},{"name":"amount","type":"uint256","internalType":"uint256"}],"outputs":[],"stateMutability":"nonpayable"},{"type":"function","name":"minAmount","inputs":[],"outputs":[{"name":"","type":"uint256","internalType":"uint256"}],"stateMutability":"view"},{"type":"function","name":"owner","inputs":[],"outputs":[{"name":"","type":"address","internalType":"address"}],"stateMutability":"view"},{"type":"function","name":"renounceOwnership","inputs":[],"outputs":[],"stateMutability":"nonpayable"},{"type":"function","name":"resolveBattle","inputs":[{"name":"battleId","type":"uint256","internalType":"uint256"}],"outputs":[],"stateMutability":"nonpayable"},{"type":"function","name":"token","inputs":[],"outputs":[{"name":"","type":"address","internalType":"contract IERC20"}],"stateMutability":"view"},{"type":"function","name":"transferOwnership","inputs":[{"name":"newOwner","type":"address","internalType":"address"}],"outputs":[],"stateMutability":"nonpayable"},{"type":"function","name":"updateAmount","inputs":[{"name":"who","type":"address","internalType":"address"},{"name":"battleId","type":"uint256","internalType":"uint256"},{"name":"amount","type":"uint256","internalType":"uint256"},{"name":"topUp","type":"bool","internalType":"bool"}],"outputs":[],"stateMutability":"nonpayable"},{"type":"function","name":"updateOption","inputs":[{"name":"who","type":"address","internalType":"address"},{"name":"battleId","type":"uint256","internalType":"uint256"}],"outputs":[],"stateMutability":"nonpayable"},{"type":"event","name":"ClaimMarketMakerIncentive","inputs":[{"name":"battleId","type":"uint256","indexed":true,"internalType":"uint256"},{"name":"incentive","type":"uint256","indexed":false,"internalType":"uint256"}],"anonymous":false},{"type":"event","name":"ClaimWin","inputs":[{"name":"who","type":"address","indexed":true,"internalType":"address"},{"name":"battleId","type":"uint256","indexed":true,"internalType":"uint256"},{"name":"payout","type":"uint256","indexed":false,"internalType":"uint256"}],"anonymous":false},{"type":"event","name":"CreateBattle","inputs":[{"name":"creator","type":"address","indexed":true,"internalType":"address"},{"name":"battleType","type":"uint8","indexed":true,"internalType":"enum BattleType"},{"name":"battleId","type":"uint256","indexed":false,"internalType":"uint256"},{"name":"hash","type":"bytes32","indexed":true,"internalType":"bytes32"},{"name":"manifest","type":"tuple","indexed":false,"internalType":"struct BattleManifest","components":[{"name":"battleType","type":"uint8","internalType":"enum BattleType"},{"name":"option0Id","type":"string","internalType":"string"},{"name":"option1Id","type":"string","internalType":"string"}]}],"anonymous":false},{"type":"event","name":"MakePrediction","inputs":[{"name":"who","type":"address","indexed":true,"internalType":"address"},{"name":"battleId","type":"uint256","indexed":true,"internalType":"uint256"},{"name":"amount","type":"uint256","indexed":false,"internalType":"uint256"},{"name":"option","type":"uint8","indexed":true,"internalType":"enum BattleOption"}],"anonymous":false},{"type":"event","name":"OwnershipTransferred","inputs":[{"name":"previousOwner","type":"address","indexed":true,"internalType":"address"},{"name":"newOwner","type":"address","indexed":true,"internalType":"address"}],"anonymous":false},{"type":"event","name":"ResolveBattle","inputs":[{"name":"battleId","type":"uint256","indexed":true,"internalType":"uint256"},{"name":"winOption","type":"uint8","indexed":true,"internalType":"enum BattleOption"},{"name":"aPIRequestId","type":"uint256","indexed":true,"internalType":"uint256"},{"name":"timestamp","type":"uint256","indexed":false,"internalType":"uint256"}],"anonymous":false},{"type":"event","name":"UpdateAmount","inputs":[{"name":"who","type":"address","indexed":true,"internalType":"address"},{"name":"battleId","type":"uint256","indexed":true,"internalType":"uint256"},{"name":"amount","type":"uint256","indexed":false,"internalType":"uint256"},{"name":"topUp","type":"bool","indexed":true,"internalType":"bool"}],"anonymous":false},{"type":"event","name":"UpdateOption","inputs":[{"name":"who","type":"address","indexed":true,"internalType":"address"},{"name":"battleId","type":"uint256","indexed":true,"internalType":"uint256"},{"name":"oldOption","type":"uint8","indexed":false,"internalType":"enum BattleOption"},{"name":"newOption","type":"uint8","indexed":false,"internalType":"enum BattleOption"}],"anonymous":false},{"type":"error","name":"AddressEmptyCode","inputs":[{"name":"target","type":"address","internalType":"address"}]},{"type":"error","name":"AddressInsufficientBalance","inputs":[{"name":"account","type":"address","internalType":"address"}]},{"type":"error","name":"FailedInnerCall","inputs":[]},{"type":"error","name":"OwnableInvalidOwner","inputs":[{"name":"owner","type":"address","internalType":"address"}]},{"type":"error","name":"OwnableUnauthorizedAccount","inputs":[{"name":"account","type":"address","internalType":"address"}]},{"type":"error","name":"SafeERC20FailedOperation","inputs":[{"name":"token","type":"address","internalType":"address"}]}],"bytecode":{"object":"0x608034620000e757601f6200286638819003918201601f19168301916001600160401b03831184841017620000ec57808492606094604052833981010312620000e7576200004d8162000102565b60406200005d6020840162000102565b920151906001600160a01b03908116908115620000ce576000549360018060a01b03199280848716176000558260405196167f8be0079c531659141344cd1fd0a4f28419497f9722a3daafe3b4186f6b6457e0600080a31690600154161760015560035561274e9081620001188239f35b604051631e4fbdf760e01b815260006004820152602490fd5b600080fd5b634e487b7160e01b600052604160045260246000fd5b51906001600160a01b0382168203620000e75756fe6080604052600436101561001257600080fd5b60003560e01c8063112c63be146117f55780631be05289146117d757806330d36f4d146116ce57806347b49d1f146116b05780634b937f1814611692578063565eea191461166b5780636dd0ce7a14611481578063715018a6146114285780637e2072301461115957806385e03f6814610a915780638da5cb5b14610a685780638fbdaa6014610a42578063925cc3d3146109e85780639b2cb5d8146109ca578063b53c69bf14610999578063b7fe63731461097d578063c72d00dd146106f3578063c9830da214610644578063d93705a514610453578063eb1c16be146101ca578063f2fde38b1461013c5763fc0c546a1461010e57600080fd5b34610137576000366003190112610137576001546040516001600160a01b039091168152602090f35b600080fd5b34610137576020366003190112610137576101556119ee565b61015d611a66565b6001600160a01b039081169081156101b157600054826bffffffffffffffffffffffff60a01b821617600055167f8be0079c531659141344cd1fd0a4f28419497f9722a3daafe3b4186f6b6457e0600080a3005b604051631e4fbdf760e01b815260006004820152602490fd5b34610137576040366003190112610137576101e36119ee565b6024359081600052602090600582526040600020916040519261020584611a92565b80549260018060a01b0390818516865260ff809560a01c161515848701526040519561023087611aae565b600193868582015416916002988984101561043d576102e79381526102568a8401611bb9565b8882015261026660038401611bb9565b604082015260408201526004820154606082015260058201546080820152600682015460a0820152600782015460c08201526008820154906102dc60e08201916101408b600a6001600160401b0397888881809a16895260401c1661010086015260098101546101208601520154169101611c5f565b511690421610611ffc565b169384600052600483526040600020866000528352610337604060002085836040519261031384611aae565b6103208382541685611c5f565b868101548885015201541615156040820152611f2d565b600381101561043d5761034b901515612048565b856000526005835261038360406000209486600052600485526040600020886000528552604060002090836040519261031384611aae565b92600384101561043d577f8fdef3e5d8f09fac5a82cff7ff935706e9ad948b4e31f97bc826e4916342f6559460409484036103f95780600460059201600019815401905501838154019055856000526004815283600020876000528152836000208260ff198254161790558351928352820152a3005b80600560049295949501600019815401905501828154019055856000526004815283600020876000528152836000208260ff198254161790558351928352820152a3005b634e487b7160e01b600052602160045260246000fd5b34610137576020806003193601126101375760043590610471611a66565b816000526005815260406000206040519061048b82611a92565b80546001600160a01b038116835260a01c60ff161515838301526040516104b181611aae565b60ff600183015416600281101561043d5781526104d060028301611bb9565b848201526104e060038301611bb9565b604082015260408301526004810154606083015260058101546080830152600681015460a0830190815260078201549260c0810193845261056a60088401549460e083019361056161014060ff600a6001600160401b03998a8c168a528a6101008a019c60401c168c5260098101546101208a015201541695019485611c5f565b51905190612093565b151580610635575b61057b90611c6b565b51600381101561043d576105f05751915161059a9290821691166126c3565b929091816000526005815283600960406000206105ba86600a8301611f3a565b0155600383101561043d577f5843e43ec048396840078c9a963d665e855d02f20e517bd343de6083a146701e90604051428152a4005b60405162461bcd60e51b815260048101859052601c60248201527f4572726f723a20426174746c6520636c6f73656420616c7265616479000000006044820152606490fd5b50835183164284161015610572565b346101375760403660031901126101375761065d6119ee565b60006040805161066c81611aae565b828152826020820152015260018060a01b03166000526004602052604060002060243560005260205260606040600020604051906106a982611aae565b6106b760ff82541683611c5f565b60ff600260018301549260208501938452015416906040830191151582526106e3604051809451611a59565b5160208301525115156040820152f35b346101375760803660031901126101375761070c6119ee565b60243560443591600383101561013757606435908260005260206005815260406000209260405161073c81611a92565b84546001600160a01b03808216835260a09190911c60ff16151584830152604051909561076882611aae565b60019260ff848301541692600284101561043d5761081593815261078e60028401611bb9565b8782015261079e60038401611bb9565b604082015260408201526004820154606082015260058201546080820152600682015460a0820152600782015460c08201526008820154906102dc60e082019161014060ff600a6001600160401b0397888881809a16895260401c1661010086015260098101546101208601520154169101611c5f565b610820871515611e31565b61082e600354831015611e73565b85600052600583526040600020938581169586600052600485526040600020886000528552826040600020015461093f57825461086f928592309216611fa4565b6040519361087c85611aae565b6108868886611c5f565b83850194838652604081019060008252876000526004865260406000208960005286526040600020905190600382101561043d577fdafe4f52c3103275958f5247f2245da359ecf060dd13f591bf6069dca1b9a1f6976108e860029383611f3a565b5185820155019051151560ff801983541691161790558188146000146109265760069160048201908154019055018181540190555b604051908152a4005b600791600582019081540190550181815401905561091d565b60405162461bcd60e51b8152600481018690526016602482015275155c19185d1948195b9d1c9a595cc81a5b9cdd19585960521b6044820152606490fd5b3461013757600036600319011261013757602060405160648152f35b346101375760203660031901126101375760606109b7600435612110565b9060405192835260208301526040820152f35b34610137576000366003190112610137576020600354604051908152f35b3461013757600319604036820112610137576004356001600160401b039182821161013757606090823603011261013757602435918216820361013757604091610a3491600401612484565b825191825215156020820152f35b34610137576020366003190112610137576020610a606004356120ea565b604051908152f35b34610137576000366003190112610137576000546040516001600160a01b039091168152602090f35b346101375760031960a03682011261013757610aab6119ee565b906001600160401b036024351161013757606090602435360301126101375760036044351015610137576084356001600160401b03811680910361013757610af66044351515611e31565b610b066003546064351015611e73565b6001600160401b0381814216011161114357610b32816001600160401b03421601602435600401612484565b6110f457600154610b539060643590309086906001600160a01b0316611fa4565b80600052600660205260406000206001600160401b038381421601166001600160401b031982541617905560025491600183016002556001604435146000146110e45760643590600060016000925b610bb6816001600160401b03421601611ebe565b9260405195610bc487611a92565b6001600160a01b038a1687526000602088015260405193610be485611aae565b6002602435600401351015610137576024356004013585526001600160401b036024803501351161013757610c253660046024803501356024350101611f0f565b60208601526001600160401b036044602435013511610137576001600160401b039660ff80928997610c64366004604460243501356024350101611f0f565b604082015260408c01521660608a015216608088015260a087015260c0860152814216011660e0840152166101008201526000610120820152600061014082015282600052600560205260406000209060018060a01b0381511682549060ff60a01b6020840151151560a01b16916affffffffffffffffffffff60a81b161717825560408101518051600281101561043d57600184019060ff8019835416911617905560208101518051906001600160401b03821161100957610d2a6002860154611b7f565b601f811161109d575b50602090601f831160011461102a5760409392916000918361101f575b50508160011b916000199060031b1c19161760028501555b01518051906001600160401b03821161100957610d886003850154611b7f565b601f8111610fc2575b50602090601f8311600114610f4e5761014093929160009183610f43575b50508160011b916000199060031b1c19161760038401555b606081015160048401556080810151600584015560a0810151600684015560c08101516007840155600883016001600160401b0360e0830151168154906fffffffffffffffff000000000000000061010085015160401b16916fffffffffffffffffffffffffffffffff19161717905561012081015160098401550151600381101561043d57600a610e599201611f3a565b610f0260405183815260406020820152610e7c6040820160243560040135611a04565b7fe1b96a70e6a6f4fc44ea0fd297921cf5db8688a89c5ad3a87a985278c775bff7610ec3610eb36024803501602435600401611f52565b60608086015260a0850191611f83565b9180610ed9604460243501602435600401611f52565b828603603f1901608084015260046024350135966001600160a01b038b16969092909190611f83565b0390a46040516064358152604435926001600160a01b0316907fdafe4f52c3103275958f5247f2245da359ecf060dd13f591bf6069dca1b9a1f690602090a4005b015190508880610daf565b906003850160005260206000209160005b601f1985168110610faa57509183916001936101409695601f19811610610f91575b505050811b016003840155610dc7565b015160001960f88460031b161c19169055888080610f81565b91926020600181928685015181550194019201610f5f565b600385016000526020600020601f840160051c810160208510611002575b601f830160051c82018110610ff6575050610d91565b60008155600101610fe0565b5080610fe0565b634e487b7160e01b600052604160045260246000fd5b015190508980610d50565b906002860160005260206000209160005b601f1985168110611085575091839160019360409695601f1981161061106c575b505050811b016002850155610d68565b015160001960f88460031b161c1916905589808061105c565b9192602060018192868501518155019401920161103b565b600286016000526020600020601f840160051c8101602085106110dd575b601f830160051c820181106110d1575050610d33565b600081556001016110bb565b50806110bb565b6000906064356000600192610ba2565b60405162461bcd60e51b815260206004820152602160248201527f4572726f723a204d616e696665737420697320616c72656164792061637469766044820152606560f81b6064820152608490fd5b634e487b7160e01b600052601160045260246000fd5b34610137576080366003190112610137576111726119ee565b60643515156064350361013757602435600052600560205260406000206040519061119c82611a92565b80546001600160a01b038116835260a01c60ff1615156020830152604051916111c483611aae565b60ff60018301541692600284101561043d576111f99381526111e860028401611bb9565b602082015261079e60038401611bb9565b60018060a01b038116908160005260046020526040600020602435600052602052611259604060002060ff60026040519261123384611aae565b6112408382541685611c5f565b6001810154602085015201541615156040820152611f2d565b600381101561043d5761126d901515612048565b60243560008181526005602090815260408083208684526004835281842094845293909152908190209051816112a282611aae565b6112b060ff82541683611c5f565b60018101549060ff6002602085019284845201541615156040840152606435600014611361575050600154604435946112f591869130916001600160a01b0316611fa4565b5191600383101561043d576001928303611353576006018381540190555b019081540190555b60405160443581526064351515917f35342123d95fc9efed2a20c5c3dd54825fe4b7057575e02156951fc46447794a602060243593a4005b600701838154019055611313565b60449593919495358095106113e357519081858103116111435784600192146113d0575b018381540390555192600384101561043d576113bd936001036113c2576006018281540390555b6001546001600160a01b0316611cb7565b61131b565b6007018281540390556113ac565b60028101805460ff191683179055611385565b60405162461bcd60e51b815260206004820152601b60248201527f4572726f723a20496e73756666696369656e742062616c616e636500000000006044820152606490fd5b3461013757600036600319011261013757611441611a66565b600080546001600160a01b0319811682556001600160a01b03167f8be0079c531659141344cd1fd0a4f28419497f9722a3daafe3b4186f6b6457e08280a3005b346101375760203660031901126101375761149a611aea565b5060043560005260056020526040600020604051906114b882611a92565b80546001600160a01b038116835260a01c60ff16151560208301526040516114df81611aae565b60ff600183015416600281101561043d576115829282600a9260ff945261150860028301611bb9565b602082015261151960038301611bb9565b604082015260408601526004810154606086015260058101546080860152600681015460a0860152600781015460c08601526001600160401b03600882015481811660e088015260401c1661010086015260098101546101208601520154166101408301611c5f565b60405180916020825260018060a01b0381511660208301526020810151151560408301526116676101406115fe604084015161016060608701526115cb61018087018251611a04565b60406115e8602083015160606101a08a01526101e0890190611a34565b91015186820361017f19016101c0880152611a34565b9260608101516080860152608081015160a086015260a081015160c086015260c081015160e08601526001600160401b0360e0820151166101008601526001600160401b0361010082015116610120860152610120810151828601520151610160840190611a59565b0390f35b34610137576040366003190112610137576020610a606116896119ee565b60243590612243565b34610137576000366003190112610137576020600254604051908152f35b34610137576000366003190112610137576020604051621275008152f35b34610137576040366003190112610137576116e76119ee565b6024356001600160401b038111610137576117069036906004016119be565b6001600160a01b038084169391929160005b84811061172157005b61172c818686611b59565b35906117c861173b8385612243565b88600052602093600485526040600020816000528552897f3d8eb7616a8609a4a9e1f7616ef60a24cfb300a82a568ff7a6293696b5aa2774600260ff81604060002001541615806117ce575b61179090611c6b565b82600052600488526040600020846000528852604060002001966001978860ff19825416179055604051858152a38486855416611cb7565b01611718565b50841515611787565b3461013757600036600319011261013757602060405162093a808152f35b34610137576020366003190112610137576004356001600160401b038111610137576118259036906004016119be565b61182d611aea565b5060005b81811061183a57005b611845818385611b59565b3590611850826120ea565b82600052600560205260406000209060405161186b81611a92565b82546001600160a01b038116825260a01c60ff16151560208201526040519461189386611aae565b60ff60018501541693600285101561043d5760ff600a61193c92896119af9860019b526118c260028301611bb9565b60208201526118d360038301611bb9565b604082015260408701526004810154606087015260058101546080870152600681015460a0870152600781015460c08701526001600160401b03600882015481811660e089015260401c1661010087015260098101546101208701520154166101408401611c5f565b602082015115806119b5575b61195190611c6b565b80600052600560205260406000208660a01b60ff60a01b198254161790557f9f7b45de55086c8416b9e7fd8b6be00bf55cf4615c415c44c81742c5e69cc0266020604051858152a28454905160a086901b8690039081169116611cb7565b01611831565b50821515611948565b9181601f84011215610137578235916001600160401b038311610137576020808501948460051b01011161013757565b600435906001600160a01b038216820361013757565b90600282101561043d5752565b60005b838110611a245750506000910152565b8181015183820152602001611a14565b90602091611a4d81518092818552858086019101611a11565b601f01601f1916010190565b90600382101561043d5752565b6000546001600160a01b03163303611a7a57565b60405163118cdaa760e01b8152336004820152602490fd5b61016081019081106001600160401b0382111761100957604052565b606081019081106001600160401b0382111761100957604052565b90601f801991011681019081106001600160401b0382111761100957604052565b60405190611af782611a92565b81610140600091828152826020820152604051611b1381611aae565b838152606060208201526060604082015260408201528260608201528260808201528260a08201528260c08201528260e082015282610100820152826101208201520152565b9190811015611b695760051b0190565b634e487b7160e01b600052603260045260246000fd5b90600182811c92168015611baf575b6020831014611b9957565b634e487b7160e01b600052602260045260246000fd5b91607f1691611b8e565b9060405191826000825492611bcd84611b7f565b908184526001948581169081600014611c3c5750600114611bf9575b5050611bf792500383611ac9565b565b9093915060005260209081600020936000915b818310611c24575050611bf793508201013880611be9565b85548884018501529485019487945091830191611c0c565b915050611bf794506020925060ff191682840152151560051b8201013880611be9565b600382101561043d5752565b15611c7257565b60405162461bcd60e51b815260206004820152601860248201527f4572726f723a20496e76616c6964206f7065726174696f6e00000000000000006044820152606490fd5b60405163a9059cbb60e01b60208201526001600160a01b03909216602483015260448083019390935291815260808101916001600160401b0383118284101761100957611bf7926040525b60018060a01b031690611d4c600080836020829551910182875af13d15611dab573d90611d2e82611db3565b91611d3c6040519384611ac9565b82523d84602084013e5b84611dce565b908151918215159283611d7c575b505050611d645750565b60249060405190635274afe760e01b82526004820152fd5b819293509060209181010312611da7576020015190811591821503611da45750388080611d5a565b80fd5b5080fd5b606090611d46565b6001600160401b03811161100957601f01601f191660200190565b90611df55750805115611de357805190602001fd5b604051630a12f52160e11b8152600490fd5b81511580611e28575b611e06575090565b604051639996b31560e01b81526001600160a01b039091166004820152602490fd5b50803b15611dfe565b15611e3857565b60405162461bcd60e51b815260206004820152601360248201527222b93937b91d102bb937b7339037b83a34b7b760691b6044820152606490fd5b15611e7a57565b606460405162461bcd60e51b815260206004820152602060248201527f4572726f723a20496e73737566696369656e7420616d6f756e7420696e7075746044820152fd5b9062093a806001600160401b038093160191821161114357565b929192611ee482611db3565b91611ef26040519384611ac9565b829481845281830111610137578281602093846000960137010152565b9080601f8301121561013757816020611f2a93359101611ed8565b90565b51600381101561043d5790565b90600381101561043d5760ff80198354169116179055565b9035601e19823603018112156101375701602081359101916001600160401b03821161013757813603831361013757565b908060209392818452848401376000828201840152601f01601f1916010190565b6040516323b872dd60e01b60208201526001600160a01b03928316602482015292909116604483015260648083019390935291815260a08101918183106001600160401b0384111761100957611bf792604052611d02565b1561200357565b60405162461bcd60e51b815260206004820152601860248201527f4572726f723a20456e747279206973206e6f74206f70656e00000000000000006044820152606490fd5b1561204f57565b606460405162461bcd60e51b815260206004820152602060248201527f4572726f723a204d616b6520612070726564696374696f6e20696e73746561646044820152fd5b9190820180921161114357565b906126ac9182810292818404149015171561114357565b8181029291811591840414171561114357565b81156120d4570490565b634e487b7160e01b600052601260045260246000fd5b6120f390612110565b505060648102908082046064149015171561114357612710900490565b9060009182526005602052604090818320825161212c81611a92565b81546001600160a01b038116825260a01c60ff1615156020820152835161215281611aae565b60ff600184015416600281101561222f5781526121f7919061217660028501611bb9565b602082015261218760038501611bb9565b8682015285820152600483015460608201526005830154608082015261014060ff600a60068601549560a0850196875260078101549860c08601998a5260088201546001600160401b039182821660e08901521c1661010086015260098101546101208601520154169101611c5f565b5182518101939080612220575060015b92519050806122165750600190565b611f2a90846120ca565b61222a90856120ca565b612207565b634e487b7160e01b87526021600452602487fd5b9060018060a01b03908160009316835260049160209083825260409283862081875283528386209284519461227786611aae565b61228560ff86541687611c5f565b60ff6002600187015496848901978852015416151581870152828852600582528088209160ff8251956122b787611a92565b8454908116875260a01c161515818601528151906122d482611aae565b60ff600185015416600281101561243f578252612375936101409360ff93600a9361230160028501611bb9565b9082015261231160038401611bb9565b82820152818901528a820154606089015260058201546080890152600682015460a0890152600782015460c089015260088201546001600160401b039182821660e08b01521c16610100880152600981015461012088015201541693019283611c5f565b8151600381101561242457156124375761238e90612110565b9491509151600381101561242457815190600382101561241157146123b557505050505090565b95949091929395519060038210156123fe57506127109495506001146123ee57506123ea916123e59151906120b7565b6120a0565b0490565b6123ea92506123e59151906120b7565b634e487b7160e01b815260218752602490fd5b634e487b7160e01b885260218752602488fd5b634e487b7160e01b875260218652602487fd5b505050505090565b634e487b7160e01b8b5260218a5260248bfd5b903590601e198136030182121561013757018035906001600160401b0382116101375760200191813603831361013757565b9160009160006001600160401b03916212750083421601918383116126965783808316931683101561265157602096878101906124c18282612452565b6124e38b60405183819483830196873781018883820152038084520182611ac9565b5190209160408201926124f68484612452565b6125188d60405183819483830196873781018a83820152038084520182611ac9565b51902011156126355761253d6125486125346125509385612452565b92909585612452565b9590925b3691611ed8565b933691611ed8565b90356002811015612631576040928a6125ae60218a9795600695885194859281612583818601998a815193849201611a11565b840161259782518093858085019101611a11565b019160f81b90820152036001810184520182611ac9565b519020998a83525220541690828210938461261c575b84156125ec575b505082156125e2575b50506125dc57565b60019150565b14905038806125d4565b91935083831091849183612606575b5050509138806125cb565b61261291929350611ebe565b16118238806125fb565b9350828461262984611ebe565b1611936125c4565b8380fd5b916126496125486125346125509385612452565b959092612541565b60405162461bcd60e51b815260206004820152601c60248201527f4572726f723a20546f6f2066617220696e2074686520667574757265000000006044820152606490fd5b634e487b7160e01b81526011600452602490fd5b6001600160401b03918216908216039190821161114357565b9190916126d081846126aa565b926126e66001600160401b039485429116612093565b9380821690421610612710576001916126fe916126aa565b161561270a5760029190565b60019190565b50506000919056fea2646970667358221220f4e7a3c6b3100a1e1ab91403cb0036490cef27d5033dcdbb52faa059fa03deb564736f6c63430008140033","linkReferences":{}},"methodIdentifiers":{"DURATION()":"1be05289","FUTURE_LIMIT()":"47b49d1f","MARKET_MAKER_INCENTIVE()":"b7fe6373","battleIds()":"4b937f18","claimMarketMakerIncentives(uint256[])":"112c63be","claimWin(address,uint256[])":"30d36f4d","createBattle(address,(uint8,string,string),uint8,uint256,uint64)":"85e03f68","generateHash((uint8,string,string),uint64)":"925cc3d3","getBattle(uint256)":"6dd0ce7a","getMarketMakerIncentive(uint256)":"8fbdaa60","getPayout(address,uint256)":"565eea19","getPredictionByBattleId(address,uint256)":"c9830da2","getPrizePoolAndOdds(uint256)":"b53c69bf","makePrediction(address,uint256,uint8,uint256)":"c72d00dd","minAmount()":"9b2cb5d8","owner()":"8da5cb5b","renounceOwnership()":"715018a6","resolveBattle(uint256)":"d93705a5","token()":"fc0c546a","transferOwnership(address)":"f2fde38b","updateAmount(address,uint256,uint256,bool)":"7e207230","updateOption(address,uint256)":"eb1c16be"},"id":38}