{"abi":[{"type":"constructor","inputs":[{"name":"_name","type":"string","internalType":"string"},{"name":"_symbol","type":"string","internalType":"string"},{"name":"_uri","type":"string","internalType":"string"},{"name":"_usdc","type":"address","internalType":"address"},{"name":"_controller","type":"address","internalType":"address"},{"name":"_admin","type":"address","internalType":"address"},{"name":"_minExpiry","type":"uint64","internalType":"uint64"}],"stateMutability":"nonpayable"},{"type":"function","name":"ADMIN_ROLE","inputs":[],"outputs":[{"name":"","type":"bytes32","internalType":"bytes32"}],"stateMutability":"view"},{"type":"function","name":"BATTLE_ROLE","inputs":[],"outputs":[{"name":"","type":"bytes32","internalType":"bytes32"}],"stateMutability":"view"},{"type":"function","name":"DEFAULT_ADMIN_ROLE","inputs":[],"outputs":[{"name":"","type":"bytes32","internalType":"bytes32"}],"stateMutability":"view"},{"type":"function","name":"balanceOf","inputs":[{"name":"account","type":"address","internalType":"address"},{"name":"id","type":"uint256","internalType":"uint256"}],"outputs":[{"name":"","type":"uint256","internalType":"uint256"}],"stateMutability":"view"},{"type":"function","name":"balanceOfBatch","inputs":[{"name":"accounts","type":"address[]","internalType":"address[]"},{"name":"ids","type":"uint256[]","internalType":"uint256[]"}],"outputs":[{"name":"","type":"uint256[]","internalType":"uint256[]"}],"stateMutability":"view"},{"type":"function","name":"burnTickets","inputs":[{"name":"ids","type":"uint256[]","internalType":"uint256[]"},{"name":"who","type":"address","internalType":"address"}],"outputs":[{"name":"totalValue","type":"uint256","internalType":"uint256"}],"stateMutability":"nonpayable"},{"type":"function","name":"exists","inputs":[{"name":"id","type":"uint256","internalType":"uint256"}],"outputs":[{"name":"","type":"bool","internalType":"bool"}],"stateMutability":"view"},{"type":"function","name":"getRoleAdmin","inputs":[{"name":"role","type":"bytes32","internalType":"bytes32"}],"outputs":[{"name":"","type":"bytes32","internalType":"bytes32"}],"stateMutability":"view"},{"type":"function","name":"getRoleMember","inputs":[{"name":"role","type":"bytes32","internalType":"bytes32"},{"name":"index","type":"uint256","internalType":"uint256"}],"outputs":[{"name":"","type":"address","internalType":"address"}],"stateMutability":"view"},{"type":"function","name":"getRoleMemberCount","inputs":[{"name":"role","type":"bytes32","internalType":"bytes32"}],"outputs":[{"name":"","type":"uint256","internalType":"uint256"}],"stateMutability":"view"},{"type":"function","name":"getTicket","inputs":[{"name":"id","type":"uint256","internalType":"uint256"}],"outputs":[{"name":"","type":"tuple","internalType":"struct IBattlesTicket.Ticket","components":[{"name":"issuer","type":"address","internalType":"address"},{"name":"amountLocked","type":"uint256","internalType":"uint256"},{"name":"holder","type":"address","internalType":"address"},{"name":"expirationDate","type":"uint64","internalType":"uint64"}]}],"stateMutability":"view"},{"type":"function","name":"grantRole","inputs":[{"name":"role","type":"bytes32","internalType":"bytes32"},{"name":"account","type":"address","internalType":"address"}],"outputs":[],"stateMutability":"nonpayable"},{"type":"function","name":"hasRole","inputs":[{"name":"role","type":"bytes32","internalType":"bytes32"},{"name":"account","type":"address","internalType":"address"}],"outputs":[{"name":"","type":"bool","internalType":"bool"}],"stateMutability":"view"},{"type":"function","name":"isApprovedForAll","inputs":[{"name":"account","type":"address","internalType":"address"},{"name":"operator","type":"address","internalType":"address"}],"outputs":[{"name":"","type":"bool","internalType":"bool"}],"stateMutability":"view"},{"type":"function","name":"minExpiry","inputs":[],"outputs":[{"name":"","type":"uint64","internalType":"uint64"}],"stateMutability":"view"},{"type":"function","name":"mintTickets","inputs":[{"name":"issuer","type":"address","internalType":"address"},{"name":"recipients","type":"address[]","internalType":"address[]"},{"name":"ticketPrices","type":"uint256[]","internalType":"uint256[]"},{"name":"ticketExpirations","type":"uint64[]","internalType":"uint64[]"}],"outputs":[{"name":"ids","type":"uint256[]","internalType":"uint256[]"}],"stateMutability":"nonpayable"},{"type":"function","name":"name","inputs":[],"outputs":[{"name":"","type":"string","internalType":"string"}],"stateMutability":"view"},{"type":"function","name":"renounceRole","inputs":[{"name":"role","type":"bytes32","internalType":"bytes32"},{"name":"callerConfirmation","type":"address","internalType":"address"}],"outputs":[],"stateMutability":"nonpayable"},{"type":"function","name":"revokeRole","inputs":[{"name":"role","type":"bytes32","internalType":"bytes32"},{"name":"account","type":"address","internalType":"address"}],"outputs":[],"stateMutability":"nonpayable"},{"type":"function","name":"safeBatchTransferFrom","inputs":[{"name":"","type":"address","internalType":"address"},{"name":"","type":"address","internalType":"address"},{"name":"","type":"uint256[]","internalType":"uint256[]"},{"name":"","type":"uint256[]","internalType":"uint256[]"},{"name":"","type":"bytes","internalType":"bytes"}],"outputs":[],"stateMutability":"pure"},{"type":"function","name":"safeTransferFrom","inputs":[{"name":"","type":"address","internalType":"address"},{"name":"","type":"address","internalType":"address"},{"name":"","type":"uint256","internalType":"uint256"},{"name":"","type":"uint256","internalType":"uint256"},{"name":"","type":"bytes","internalType":"bytes"}],"outputs":[],"stateMutability":"pure"},{"type":"function","name":"setApprovalForAll","inputs":[{"name":"","type":"address","internalType":"address"},{"name":"","type":"bool","internalType":"bool"}],"outputs":[],"stateMutability":"pure"},{"type":"function","name":"setMinExpiry","inputs":[{"name":"_minExpiry","type":"uint64","internalType":"uint64"}],"outputs":[],"stateMutability":"nonpayable"},{"type":"function","name":"supportsInterface","inputs":[{"name":"interfaceId","type":"bytes4","internalType":"bytes4"}],"outputs":[{"name":"","type":"bool","internalType":"bool"}],"stateMutability":"view"},{"type":"function","name":"symbol","inputs":[],"outputs":[{"name":"","type":"string","internalType":"string"}],"stateMutability":"view"},{"type":"function","name":"totalSupply","inputs":[],"outputs":[{"name":"","type":"uint256","internalType":"uint256"}],"stateMutability":"view"},{"type":"function","name":"totalSupply","inputs":[{"name":"id","type":"uint256","internalType":"uint256"}],"outputs":[{"name":"","type":"uint256","internalType":"uint256"}],"stateMutability":"view"},{"type":"function","name":"uri","inputs":[{"name":"","type":"uint256","internalType":"uint256"}],"outputs":[{"name":"","type":"string","internalType":"string"}],"stateMutability":"view"},{"type":"function","name":"usdc","inputs":[],"outputs":[{"name":"","type":"address","internalType":"contract IERC20"}],"stateMutability":"view"},{"type":"event","name":"ApprovalForAll","inputs":[{"name":"account","type":"address","indexed":true,"internalType":"address"},{"name":"operator","type":"address","indexed":true,"internalType":"address"},{"name":"approved","type":"bool","indexed":false,"internalType":"bool"}],"anonymous":false},{"type":"event","name":"RoleAdminChanged","inputs":[{"name":"role","type":"bytes32","indexed":true,"internalType":"bytes32"},{"name":"previousAdminRole","type":"bytes32","indexed":true,"internalType":"bytes32"},{"name":"newAdminRole","type":"bytes32","indexed":true,"internalType":"bytes32"}],"anonymous":false},{"type":"event","name":"RoleGranted","inputs":[{"name":"role","type":"bytes32","indexed":true,"internalType":"bytes32"},{"name":"account","type":"address","indexed":true,"internalType":"address"},{"name":"sender","type":"address","indexed":true,"internalType":"address"}],"anonymous":false},{"type":"event","name":"RoleRevoked","inputs":[{"name":"role","type":"bytes32","indexed":true,"internalType":"bytes32"},{"name":"account","type":"address","indexed":true,"internalType":"address"},{"name":"sender","type":"address","indexed":true,"internalType":"address"}],"anonymous":false},{"type":"event","name":"SetMinExpiry","inputs":[{"name":"minExpiry","type":"uint256","indexed":false,"internalType":"uint256"}],"anonymous":false},{"type":"event","name":"TicketClosed","inputs":[{"name":"id","type":"uint256","indexed":true,"internalType":"uint256"},{"name":"holder","type":"address","indexed":true,"internalType":"address"},{"name":"ticketPrice","type":"uint256","indexed":false,"internalType":"uint256"},{"name":"isUsed","type":"bool","indexed":true,"internalType":"bool"}],"anonymous":false},{"type":"event","name":"TicketMinted","inputs":[{"name":"id","type":"uint256","indexed":true,"internalType":"uint256"},{"name":"issuer","type":"address","indexed":true,"internalType":"address"},{"name":"holder","type":"address","indexed":true,"internalType":"address"},{"name":"ticketPrice","type":"uint256","indexed":false,"internalType":"uint256"},{"name":"expirationDate","type":"uint64","indexed":false,"internalType":"uint64"}],"anonymous":false},{"type":"event","name":"TransferBatch","inputs":[{"name":"operator","type":"address","indexed":true,"internalType":"address"},{"name":"from","type":"address","indexed":true,"internalType":"address"},{"name":"to","type":"address","indexed":true,"internalType":"address"},{"name":"ids","type":"uint256[]","indexed":false,"internalType":"uint256[]"},{"name":"values","type":"uint256[]","indexed":false,"internalType":"uint256[]"}],"anonymous":false},{"type":"event","name":"TransferSingle","inputs":[{"name":"operator","type":"address","indexed":true,"internalType":"address"},{"name":"from","type":"address","indexed":true,"internalType":"address"},{"name":"to","type":"address","indexed":true,"internalType":"address"},{"name":"id","type":"uint256","indexed":false,"internalType":"uint256"},{"name":"value","type":"uint256","indexed":false,"internalType":"uint256"}],"anonymous":false},{"type":"event","name":"URI","inputs":[{"name":"value","type":"string","indexed":false,"internalType":"string"},{"name":"id","type":"uint256","indexed":true,"internalType":"uint256"}],"anonymous":false},{"type":"error","name":"AccessControlBadConfirmation","inputs":[]},{"type":"error","name":"AccessControlUnauthorizedAccount","inputs":[{"name":"account","type":"address","internalType":"address"},{"name":"neededRole","type":"bytes32","internalType":"bytes32"}]},{"type":"error","name":"AddressEmptyCode","inputs":[{"name":"target","type":"address","internalType":"address"}]},{"type":"error","name":"AddressInsufficientBalance","inputs":[{"name":"account","type":"address","internalType":"address"}]},{"type":"error","name":"ERC1155InsufficientBalance","inputs":[{"name":"sender","type":"address","internalType":"address"},{"name":"balance","type":"uint256","internalType":"uint256"},{"name":"needed","type":"uint256","internalType":"uint256"},{"name":"tokenId","type":"uint256","internalType":"uint256"}]},{"type":"error","name":"ERC1155InvalidApprover","inputs":[{"name":"approver","type":"address","internalType":"address"}]},{"type":"error","name":"ERC1155InvalidArrayLength","inputs":[{"name":"idsLength","type":"uint256","internalType":"uint256"},{"name":"valuesLength","type":"uint256","internalType":"uint256"}]},{"type":"error","name":"ERC1155InvalidOperator","inputs":[{"name":"operator","type":"address","internalType":"address"}]},{"type":"error","name":"ERC1155InvalidReceiver","inputs":[{"name":"receiver","type":"address","internalType":"address"}]},{"type":"error","name":"ERC1155InvalidSender","inputs":[{"name":"sender","type":"address","internalType":"address"}]},{"type":"error","name":"ERC1155MissingApprovalForAll","inputs":[{"name":"operator","type":"address","internalType":"address"},{"name":"owner","type":"address","internalType":"address"}]},{"type":"error","name":"FailedInnerCall","inputs":[]},{"type":"error","name":"ReentrancyGuardReentrantCall","inputs":[]},{"type":"error","name":"SafeERC20FailedOperation","inputs":[{"name":"token","type":"address","internalType":"address"}]}],"bytecode":{"object":"0x60a060405234620007015762002df0803803806200001d8162000706565b92833981019060e081830312620007015780516001600160401b0381116200070157826200004d9183016200072c565b60208201516001600160401b0381116200070157836200006f9184016200072c565b604083015190936001600160401b0382116200070157620000929184016200072c565b620000a0606084016200079e565b93620000af608085016200079e565b9260c0620000c060a087016200079e565b950151926001600160401b038416840362000701578051906001600160401b038211620004db5760045490600182811c92168015620006f6575b6020831014620004ba5781601f84931162000681575b50602090601f8311600114620005f257600092620005e6575b50508160011b916000199060031b1c1916176004555b60016007558051906001600160401b038211620004db5760085490600182811c92168015620005db575b6020831014620004ba5781601f84931162000577575b50602090601f8311600114620004fd57600092620004f1575b50508160011b916000199060031b1c1916176008555b8051906001600160401b038211620004db5760095490600182811c92168015620004d0575b6020831014620004ba5781601f84931162000456575b50602090601f8311600114620003dc57600092620003d0575b50508160011b916000199060031b1c1916176009555b6001600160a01b03938416608052600b80546001600160401b0319166001600160401b03929092169190911790556200025181620007b3565b62000391575b50620002638162000833565b62000343575b600080805260208190527fad3228b676f7d3cd4284a5443f17f1962b36e491b30a40b2405849e597ba5fb68054908290557fbd79b86ffe0ab8e8776151514217cd7cacd52c909f66475c3af44e129f0b00ff90829081838180a48160008051602062002dd083398151915280825260016040832001908282549255838380a47f3b41352979f531f5b8031853cf85802ce7e7f7961e3a1e4965cb157318c1cf50808352600160408420019183835493558380a460405161241e908162000952823960805181818161085501528181610e5501526117160152f35b60008051602062002dd083398151915260005260016020526200038891167f50efbde2d46c37e9785f1791697f77e94bb7b701e19f1930a668820722d37694620008c4565b50388062000269565b600080526001602052620003c89083167fa6eef7e35abe7026729641147f7915573c7e97b47efa546f5f6e3230263bcb49620008c4565b503862000257565b01519050388062000202565b6009600090815260008051602062002db08339815191529350601f198516905b8181106200043d575090846001959493921062000423575b505050811b0160095562000218565b015160001960f88460031b161c1916905538808062000414565b92936020600181928786015181550195019301620003fc565b600960005290915060008051602062002db0833981519152601f840160051c81019160208510620004af575b90601f859493920160051c01905b8181106200049f5750620001e9565b6000815584935060010162000490565b909150819062000482565b634e487b7160e01b600052602260045260246000fd5b91607f1691620001d3565b634e487b7160e01b600052604160045260246000fd5b01519050388062000198565b6008600090815260008051602062002d908339815191529350601f198516905b8181106200055e575090846001959493921062000544575b505050811b01600855620001ae565b015160001960f88460031b161c1916905538808062000535565b929360206001819287860151815501950193016200051d565b600860005290915060008051602062002d90833981519152601f840160051c81019160208510620005d0575b90601f859493920160051c01905b818110620005c057506200017f565b60008155849350600101620005b1565b9091508190620005a3565b91607f169162000169565b01519050388062000129565b6004600090815293507f8a35acfbc15ff81a39ae7d344fd709f28e8600b4aa8c65c6b64bfe7fe36bd19b91905b601f198416851062000665576001945083601f198116106200064b575b505050811b016004556200013f565b015160001960f88460031b161c191690553880806200063c565b818101518355602094850194600190930192909101906200061f565b60046000529091507f8a35acfbc15ff81a39ae7d344fd709f28e8600b4aa8c65c6b64bfe7fe36bd19b601f840160051c81019160208510620006eb575b90601f859493920160051c01905b818110620006db575062000110565b60008155849350600101620006cc565b9091508190620006be565b91607f1691620000fa565b600080fd5b6040519190601f01601f191682016001600160401b03811183821017620004db57604052565b919080601f84011215620007015782516001600160401b038111620004db5760209062000762601f8201601f1916830162000706565b92818452828287010111620007015760005b8181106200078a57508260009394955001015290565b858101830151848201840152820162000774565b51906001600160a01b03821682036200070157565b6001600160a01b031660008181527fad3228b676f7d3cd4284a5443f17f1962b36e491b30a40b2405849e597ba5fb5602052604081205490919060ff166200082f57818052816020526040822081835260205260408220600160ff19825416179055339160008051602062002d708339815191528180a4600190565b5090565b6001600160a01b031660008181527f7d7ffb7a348e1c6a02869081a26547b49160dd3df72d1d75a570eb9b698292ec602052604081205490919060008051602062002dd08339815191529060ff16620008bf57808352826020526040832082845260205260408320600160ff1982541617905560008051602062002d70833981519152339380a4600190565b505090565b919060018301600090828252806020526040822054156000146200094b57845494680100000000000000008610156200093757600186018082558610156200092357836040949596828552602085200155549382526020522055600190565b634e487b7160e01b83526032600452602483fd5b634e487b7160e01b83526041600452602483fd5b5092505056fe6080604052600436101561001257600080fd5b60003560e01c8062fdd58e146101e657806301ffc9a7146101e157806306fdde03146101dc5780630e89341c146101d757806318160ddd146101d2578063248a9ca3146101cd5780632eb2c2d6146101c85780632f2ff15d146101c357806336568abe146101be5780633e413bee146101b95780634e1273f4146101b45780634f558e79146101af57806371522f60146101aa57806375b238fc146101a55780637dc379fa146101a05780639010d07c1461019b57806391d148541461019657806395d89b4114610191578063a217fddf1461018c578063a22cb46514610187578063ac71fe4d14610182578063bd85b0391461017d578063c0e6d2d214610178578063ca15c87314610173578063d547741f1461016e578063e6fb6a2e14610169578063e985e9c514610164578063f17aea891461015f5763f242432a1461015a57600080fd5b6111bf565b611184565b611128565b611101565b6110bf565b611093565b610de4565b610db8565b610d11565b610cd4565b610cae565b610beb565b610b95565b610b4e565b610a9b565b610a60565b6109e2565b610984565b6108c9565b61083f565b6107f2565b610780565b610701565b6105ec565b6105ce565b6104d8565b6103cc565b610264565b610201565b6001600160a01b038116036101fc57565b600080fd5b346101fc5760403660031901126101fc576020610249600435610223816101eb565b6024356000526002835260406000209060018060a01b0316600052602052604060002090565b54604051908152f35b6001600160e01b03198116036101fc57565b346101fc5760203660031901126101fc57602060043561028381610252565b63ffffffff60e01b16636cdb3d1360e11b81149081156102f5575b81156102b0575b506040519015158152f35b635a05180f60e01b8114915081156102ca575b50386102a5565b637965db0b60e01b8114915081156102e4575b50386102c3565b6301ffc9a760e01b149050386102dd565b6303a24d0760e21b8114915061029e565b634e487b7160e01b600052604160045260246000fd5b608081019081106001600160401b0382111761033757604052565b610306565b602081019081106001600160401b0382111761033757604052565b90601f801991011681019081106001600160401b0382111761033757604052565b919082519283825260005b8481106103a4575050826000602080949584010152601f8019910116010190565b602081830181015184830182015201610383565b9060206103c9928181520190610378565b90565b346101fc576000806003193601126104d55760405190806008549060019180831c928082169283156104cb575b60209283861085146104b7578588526020880194908115610496575060011461043d575b6104398761042d81890382610357565b604051918291826103b8565b0390f35b600860005294509192917ff3f7a9fe364faab93b216da50a3214154f22a0a2b415b23a84c8169e8b636ee35b838610610485575050509101905061042d82610439388061041d565b805485870152948201948101610469565b60ff191685525050505090151560051b01905061042d82610439388061041d565b634e487b7160e01b82526022600452602482fd5b93607f16936103f9565b80fd5b346101fc576020806003193601126101fc576040519060009060045460019181831c928083169283156105c4575b82851084146105b05784875260208701939081156105915750600114610537575b6104398661042d81880382610357565b6004600090815294509192917f8a35acfbc15ff81a39ae7d344fd709f28e8600b4aa8c65c6b64bfe7fe36bd19b5b838610610580575050509101905061042d8261043938610527565b805485870152948201948101610565565b60ff1916845250505090151560051b01905061042d8261043938610527565b634e487b7160e01b86526022600452602486fd5b93607f1693610506565b346101fc5760003660031901126101fc576020600654604051908152f35b346101fc5760203660031901126101fc5760043560005260006020526020600160406000200154604051908152f35b604051906106288261031c565b565b6001600160401b0381116103375760051b60200190565b81601f820112156101fc578035916106588361062a565b926106666040519485610357565b808452602092838086019260051b8201019283116101fc578301905b828210610690575050505090565b81358152908301908301610682565b6001600160401b03811161033757601f01601f191660200190565b81601f820112156101fc578035906106d18261069f565b926106df6040519485610357565b828452602083830101116101fc57816000926020809301838601378301015290565b346101fc5760a03660031901126101fc5761071d6004356101eb565b6107286024356101eb565b6001600160401b036044358181116101fc57610748903690600401610641565b506064358181116101fc57610761903690600401610641565b506084359081116101fc5761077a9036906004016106ba565b506123a3565b346101fc5760403660031901126101fc576024356004356107a0826101eb565b600091818352826020526107ba6001604085200154611205565b6107c48183611246565b6107cc578280f35b9082526001602052604082206107eb916001600160a01b0316906114fe565b5038808280f35b346101fc5760403660031901126101fc5760243561080f816101eb565b336001600160a01b0382160361082d5761082b906004356112d7565b005b60405163334bd91960e11b8152600490fd5b346101fc5760003660031901126101fc576040517f00000000000000000000000000000000000000000000000000000000000000006001600160a01b03168152602090f35b90815180825260208080930193019160005b8281106108a4575050505090565b835185529381019392810192600101610896565b9060206103c9928181520190610884565b346101fc5760403660031901126101fc576004356001600160401b038082116101fc57366023830112156101fc5781600401356109058161062a565b926109136040519485610357565b81845260209160248386019160051b830101913683116101fc57602401905b82821061096b57856024358681116101fc576104399161095961095f923690600401610641565b90611426565b604051918291826108b8565b8380918335610979816101eb565b815201910190610932565b346101fc5760203660031901126101fc57600435600052600560205260206040600020541515604051908152f35b9181601f840112156101fc578235916001600160401b0383116101fc576020808501948460051b0101116101fc57565b346101fc5760803660031901126101fc576004356109ff816101eb565b6001600160401b036024358181116101fc57610a1f9036906004016109b2565b926044358381116101fc57610a389036906004016109b2565b906064359485116101fc5761043995610a5861095f9636906004016109b2565b9590946116ab565b346101fc5760003660031901126101fc5760206040517fa49807205ce4d355092ef5a8a18f56e8913cf4a201fbe287825b095693c217758152f35b346101fc5760203660031901126101fc57610ab4612055565b50600435600052600c60205261043960406000206001600160401b0360405191610add8361031c565b600260018060a01b0391828154168552600181015460208601520154908116604084015260a01c1660608201526040519182918291909160606001600160401b0381608084019560018060a01b03808251168652602082015160208701526040820151166040860152015116910152565b346101fc5760403660031901126101fc5760043560005260016020526020610b7c60243560406000206114c8565b905460405160039290921b1c6001600160a01b03168152f35b346101fc5760403660031901126101fc57602060ff610bdf602435610bb9816101eb565b6004356000526000845260406000209060018060a01b0316600052602052604060002090565b54166040519015158152f35b346101fc576000806003193601126104d55760405190806009549060019180831c92808216928315610ca4575b60209283861085146104b75785885260208801949081156104965750600114610c4b576104398761042d81890382610357565b600960005294509192917f6e1540171b6c0c960b71a7020d9f60077f6af931a8bbf590da0223dacf75c7af5b838610610c93575050509101905061042d82610439388061041d565b805485870152948201948101610c77565b93607f1693610c18565b346101fc5760003660031901126101fc57602060405160008152f35b801515036101fc57565b346101fc5760403660031901126101fc57610cf06004356101eb565b610cfb602435610cca565b6123a3565b6001600160401b038116036101fc57565b346101fc5760203660031901126101fc577f58676437f65a22f618523effa67b0de8e87b00a042a64387a6c2a2293afb302f60206001600160401b03600435610d5981610d00565b7fa49807205ce4d355092ef5a8a18f56e8913cf4a201fbe287825b095693c2177560009081528084526040808220338352602052902054610d9c9060ff16611669565b16806001600160401b0319600b541617600b55604051908152a1005b346101fc5760203660031901126101fc5760043560005260056020526020604060002054604051908152f35b346101fc576040806003193601126101fc576001600160401b03906004358281116101fc57610e179036906004016109b2565b919060243593610e26856101eb565b610e2e612032565b6000948594610e3b612055565b5086924216925b818110610e91576104398787610e7982337f0000000000000000000000000000000000000000000000000000000000000000612365565b610e836001600755565b519081529081906020820190565b95868684610ea1829a868a611978565b3580808d610eb982600052600c602052604060002090565b610ec29061207a565b9d8e9160208301998a511515610ed7906120c4565b60608401518e906001600160401b03166001600160401b0316116000149a61102b9961101999611009986110049760019f96610ff59761103157507f3b41352979f531f5b8031853cf85802ce7e7f7961e3a1e4965cb157318c1cf5060009081526020528f937f9d9fb3cc80999fbd767dc898a9a4e28b2c904a2d47b820e2192e280bd44f67d591610fdf9190610fb3610fae610fa7337fb4b8413966166c3b3207c3e607f3d7b9119f4997a5e6005eaa78a22ce39ee5c25b9060018060a01b0316600052602052604060002090565b5460ff1690565b611669565b018051610fd2906001600160a01b0316878060a01b0380971614612104565b516001600160a01b031690565b85518951908152931692602090a45b5190611a90565b9e01516001600160a01b031690565b612143565b600052600c602052604060002090565b60026000918281558260018201550155565b01610e42565b815190946001600160a01b0394507f9d9fb3cc80999fbd767dc898a9a4e28b2c904a2d47b820e2192e280bd44f67d592611080926110729087163314611669565b01516001600160a01b031690565b85518951908152931692602090a4610fee565b346101fc5760203660031901126101fc5760043560005260016020526020604060002054604051908152f35b346101fc5760403660031901126101fc5761082b6024356004356110e2826101eb565b8060005260006020526110fc600160406000200154611205565b6112d7565b346101fc5760003660031901126101fc5760206001600160401b03600b5416604051908152f35b346101fc5760403660031901126101fc57602060ff610bdf60043561114c816101eb565b60243590611159826101eb565b60018060a01b03166000526003845260406000209060018060a01b0316600052602052604060002090565b346101fc5760003660031901126101fc5760206040517f3b41352979f531f5b8031853cf85802ce7e7f7961e3a1e4965cb157318c1cf508152f35b346101fc5760a03660031901126101fc576111db6004356101eb565b6111e66024356101eb565b6084356001600160401b0381116101fc5761077a9036906004016106ba565b60008181526020818152604080832033845290915290205460ff16156112285750565b6044906040519063e2517d3f60e01b82523360048301526024820152fd5b6000818152602081815260408083206001600160a01b038616845290915281205490919060ff166112d157808252602082815260408084206001600160a01b038616600090815292529020805460ff1916600117905533926001600160a01b0316917f2f8788117e7eff1d82e926ec794901d17c78024a50270940304540a733656f0d9080a4600190565b50905090565b6112e18282611312565b91826112ec57505090565b60009182526001602052604090912061130e916001600160a01b0316906115b4565b5090565b6000818152602081815260408083206001600160a01b038616845290915281205490919060ff16156112d157808252602082815260408084206001600160a01b038616600090815292529020805460ff1916905533926001600160a01b0316917ff6391f5c32d9c69d2a47ea670b442974b53935d1edc7fd64eb21e047a839171b9080a4600190565b906113a58261062a565b6113b26040519182610357565b82815280926113c3601f199161062a565b0190602036910137565b634e487b7160e01b600052601160045260246000fd5b60001981146113f25760010190565b6113cd565b634e487b7160e01b600052603260045260246000fd5b80518210156114215760209160051b010190565b6113f7565b919091805183518082036114a6575050611440815161139b565b90600090815b815181101561149e57806114886114999260051b6002602080808489010151938c010151885252604086209060018060a01b0316600052602052604060002090565b54611493828761140d565b526113e3565b611446565b509193505050565b604051635b05999160e01b815260048101919091526024810191909152604490fd5b80548210156114215760005260206000200190600090565b916114fa9183549060031b91821b91600019901b19161790565b9055565b600181019082600052816020526040600020541560001461156c57805468010000000000000000811015610337576115576115408260018794018555846114c8565b819391549060031b91821b91600019901b19161790565b90555491600052602052604060002055600190565b505050600090565b805490811561159e576000199182019161158e83836114c8565b909182549160031b1b1916905555565b634e487b7160e01b600052603160045260246000fd5b60018101918060005282602052604060002054928315156000146116605760001992848401908582116113f25780549485019485116113f257600095858361161797611608950361161d575b505050611574565b90600052602052604060002090565b55600190565b6116476116419161163161165794876114c8565b90549060031b1c928391876114c8565b906114e0565b8590600052602052604060002090565b55388080611600565b50505050600090565b1561167057565b60405162461bcd60e51b81526020600482015260136024820152722aa720aaaa2427a924ad22a22fa1a0a62622a960691b6044820152606490fd5b9295949390916116b9612032565b8181148061192c575b6116d3909793929197969596611935565b6116dc8761139b565b96600a54966000966116f6600b546001600160401b031690565b9188965b84881061174a57505050505050505061173f929161173a9130907f0000000000000000000000000000000000000000000000000000000000000000611f00565b600a55565b906106286001600755565b909192939495969961175b906113e3565b99888c828d61176a828461140d565b526117749161140d565b5161178083898c611978565b61178990611988565b9061179e6001600160a01b0383161515611992565b6117a9848b87611978565b35809d8115156117b8906119de565b6117c3868a8a611978565b6117cc90611a2a565b9e8f6001600160401b038c16906001600160401b031610156117ed90611a34565b6117f691611a90565b9d6117ff611a9d565b61180a908486611acb565b61181d906001600160401b034216611ab0565b9261182661061b565b6001600160a01b0386168152602081018390526001600160a01b038216604080830191909152906001600160401b038616606082015261187085600052600c602052604060002090565b815181546001600160a01b0319166001600160a01b0391821617825560208301516001830155604083015160029092018054606090940151929091166001600160e01b03199093169290921760a09190911b67ffffffffffffffff60a01b16179055519182526001600160401b039390931660208201526001600160a01b0392831693909216917f7f75141ce11311992465379c1256237db165b60ddf7ba642497d571de6c0ecef90604090a4600101969594939291906116fa565b508086146116c2565b1561193c57565b60405162461bcd60e51b81526020600482015260146024820152730aadccae2eac2d840c2e4e4c2f240d8cadccee8d60631b6044820152606490fd5b91908110156114215760051b0190565b356103c9816101eb565b1561199957565b60405162461bcd60e51b815260206004820152601a60248201527f4e756c6c206164647265737320666f7220726563697069656e740000000000006044820152606490fd5b156119e557565b60405162461bcd60e51b815260206004820152601a60248201527f4e756c6c2076616c756520666f72207469636b657450726963650000000000006044820152606490fd5b356103c981610d00565b15611a3b57565b60405162461bcd60e51b815260206004820152602760248201527f4d696e2065787069727920666f72207469636b657445787069726174696f6e206044820152661b9bdd081b595d60ca1b6064820152608490fd5b919082018092116113f257565b60405190611aaa8261033c565b60008252565b9190916001600160401b03808094169116019182116113f257565b92906001600160a01b03841615611bb157611b05604051916001835260208301526040820190600182526001606084015260808301604052565b9091611b12828487611de0565b600094855b8451871015611b6f57611b63611b6991611b31898761140d565b5190611b51611b408b8a61140d565b516000526005602052604060002090565b611b5c838254611a90565b9055611a90565b966113e3565b95611b17565b611b89919594929650611b8490600654611a90565b600655565b8051600103611ba75790602080610628959301519101519133611c40565b6106289333611d86565b604051632bfa23e760e11b815260006004820152602490fd5b908160209103126101fc57516103c981610252565b909260a0926103c99594600180861b0316835260006020840152604083015260608201528160808201520190610378565b3d15611c3b573d90611c218261069f565b91611c2f6040519384610357565b82523d6000602084013e565b606090565b9293919093843b611c53575b5050505050565b602091611c76604051948593849363f23a6e6160e01b9889865260048601611bdf565b038160006001600160a01b0388165af160009181611d0b575b50611cce5782611c9d611c10565b8051919082611cc757604051632bfa23e760e11b81526001600160a01b0383166004820152602490fd5b9050602001fd5b6001600160e01b03191603611ce857503880808080611c4c565b604051632bfa23e760e11b81526001600160a01b03919091166004820152602490fd5b611d2d91925060203d8111611d34575b611d258183610357565b810190611bca565b9038611c8f565b503d611d1b565b92611d6a6103c99593611d789360018060a01b031686526000602087015260a0604087015260a0860190610884565b908482036060860152610884565b916080818403910152610378565b9293919093843b611d98575050505050565b602091611c76604051948593849363bc197c8160e01b9889865260048601611d3b565b9091611dd26103c993604084526040840190610884565b916020818403910152610884565b91909182518251908181036114a657505060005b8351811015611e6057600581901b8481016020908101519185010151611e2e929184906001600160a01b038216611e33575b5050506113e3565b611df4565b611e5691610f90611e4e926000526002602052604060002090565b918254611a90565b9055388381611e26565b50916001815114600014611ec1576020908101519181015160408051938452918301526001600160a01b039092169160009133917fc3d58168c5ae7397731d063d5bbf3d657854427343f4c083240f7aacaa2d0f629190819081015b0390a4565b7f4a39dc06d4c0dbc64b70af90fd698a233a518aa5d07e595d983b8c0526c8f7fb611ebc6000939460405191829160018060a01b031696339583611dbb565b6040516323b872dd60e01b60208201526001600160a01b03928316602482015292909116604483015260648083019390935291815260a08101918183106001600160401b0384111761033757610628926040525b600080611f7d9260018060a01b03169360208151910182865af1611f76611c10565b9083611fcf565b8051908115159182611fab575b5050611f935750565b60249060405190635274afe760e01b82526004820152fd5b81925090602091810103126101fc5760200151611fc781610cca565b153880611f8a565b90611ff65750805115611fe457805190602001fd5b604051630a12f52160e11b8152600490fd5b81511580612029575b612007575090565b604051639996b31560e01b81526001600160a01b039091166004820152602490fd5b50803b15611fff565b600260075414612043576002600755565b604051633ee5aeb560e01b8152600490fd5b604051906120628261031c565b60006060838281528260208201528260408201520152565b906040516120878161031c565b82546001600160a01b03908116825260018401546020830152600290930154928316604082015260a09290921c6001600160401b03166060830152565b156120cb57565b60405162461bcd60e51b81526020600482015260116024820152702737b732bc34b9ba32b73a103a37b5b2b760791b6044820152606490fd5b1561210b57565b60405162461bcd60e51b815260206004820152601060248201526f24b731b7b93932b1ba103437b63232b960811b6044820152606490fd5b6001600160a01b03811691821561234d5761217d604051916001835260208301526040820190600182526001606084015260808301604052565b9190604094855161218d8161033c565b6000809152825185519081810361232c575050805b835181101561223d578060051b602080828701015191880101516121d487610f90846000526002602052604060002090565b548181106122075787610f906122029594936121fc9303936000526002602052604060002090565b556113e3565b6121a2565b8a516303dee4c560e01b81526001600160a01b038916600482015260248101919091526044810182905260648101839052608490fd5b5093959250938390600193848451146000146122f2576020848101518982015192519081529081019190915233907fc3d58168c5ae7397731d063d5bbf3d657854427343f4c083240f7aacaa2d0f6290604090a481905b83925b6122ae575b50505061062891925060065403600655565b90919281518410156122ec576122e4906122c8858861140d565b51906122d7611b40878661140d565b82815403905501936113e3565b919081612297565b9261229c565b517f4a39dc06d4c0dbc64b70af90fd698a233a518aa5d07e595d983b8c0526c8f7fb3391806123228b8883611dbb565b0390a48190612294565b8851635b05999160e01b815260048101919091526024810191909152604490fd5b604051626a0d4560e21b815260006004820152602490fd5b60405163a9059cbb60e01b60208201526001600160a01b0390921660248301526044808301939093529181526106289161239e8261031c565b611f54565b60405162461bcd60e51b815260206004820152601760248201527f4e6f6e2d7472616e736665727261626c6520746f6b656e0000000000000000006044820152606490fdfea2646970667358221220d25e31dee24054f8ed6877ee97b2dc61780f29228b357e777aa9ca2f5c92db2864736f6c634300081400332f8788117e7eff1d82e926ec794901d17c78024a50270940304540a733656f0df3f7a9fe364faab93b216da50a3214154f22a0a2b415b23a84c8169e8b636ee36e1540171b6c0c960b71a7020d9f60077f6af931a8bbf590da0223dacf75c7afa49807205ce4d355092ef5a8a18f56e8913cf4a201fbe287825b095693c21775","linkReferences":{}},"methodIdentifiers":{"ADMIN_ROLE()":"75b238fc","BATTLE_ROLE()":"f17aea89","DEFAULT_ADMIN_ROLE()":"a217fddf","balanceOf(address,uint256)":"00fdd58e","balanceOfBatch(address[],uint256[])":"4e1273f4","burnTickets(uint256[],address)":"c0e6d2d2","exists(uint256)":"4f558e79","getRoleAdmin(bytes32)":"248a9ca3","getRoleMember(bytes32,uint256)":"9010d07c","getRoleMemberCount(bytes32)":"ca15c873","getTicket(uint256)":"7dc379fa","grantRole(bytes32,address)":"2f2ff15d","hasRole(bytes32,address)":"91d14854","isApprovedForAll(address,address)":"e985e9c5","minExpiry()":"e6fb6a2e","mintTickets(address,address[],uint256[],uint64[])":"71522f60","name()":"06fdde03","renounceRole(bytes32,address)":"36568abe","revokeRole(bytes32,address)":"d547741f","safeBatchTransferFrom(address,address,uint256[],uint256[],bytes)":"2eb2c2d6","safeTransferFrom(address,address,uint256,uint256,bytes)":"f242432a","setApprovalForAll(address,bool)":"a22cb465","setMinExpiry(uint64)":"ac71fe4d","supportsInterface(bytes4)":"01ffc9a7","symbol()":"95d89b41","totalSupply()":"18160ddd","totalSupply(uint256)":"bd85b039","uri(uint256)":"0e89341c","usdc()":"3e413bee"},"id":48}